:400000000080002011000000150F0000150F000080B500AF024A034B1B68136000F0ACFFBC760040FA46004010B5054C237833B9044B13B10448AFF300800123237010BD24
:400040004881FF1F0000000058240000084B10B51BB108490848AFF300800848036803B910BD074B002BFBD0BDE81040184700BF000000004C81FF1F58240000C880FF1F0A
:400080000000000080B5ACB000AF002387F8A030002387F8A130724BC7F8A830012387F8A73000237B7200F0E3F901F0A1FB642001F0EEFC6B4801F017FC6B4801F014FC1A
:4000C000684801F011FC00F0DDF90346002B6DD1664801F009FC012001F028FC0023FB71FB1D184600F06EFC07F10803184600F077FC3B7A1A4607F10C035D49184601F0CC
:4001000087FD07F10C03184601F0EEFBFB791A4607F10C035749184601F07AFD07F10C03184601F0E1FB544801F0DEFBD7F8A80000F082FC00F0B2FB642001F0A9FC00F097
:40014000A3FB00F0D9F900F0E1F900F0CBF900F0BFF9202000F084FB00F078FB202000F065FB0A21002000F0E3FB0A21012000F0DFFB0A21022000F0DBFB0A21032000F0D7
:40018000D7FB202000F0A4FB032000F0C1FB0C2000F0AEFB032000F08BFB00F0FBFB374801F0A2FBD7F8A80000F046FC344801F09BFB344801F0E8FB00F0CEF962B6324B36
:4001C0001B78012BFBD107F10903184600F068F97B7A002B40D007F10B03184600F0AEF907F10A03184600F09BF9BB7A1A46FB7AD31AC7F8AC30D7F8AC30002B04DCD7F898
:40020000AC302033C7F8AC3007F10C03D7F8AC201E49184601F0FCFC07F10C03184601F063FBD7F8AC30DBB207F1400297F8A710184600F019FA07F14003184600F09AFCB8
:40024000024607F10C031249184601F0E1FC07F10C03184601F048FB0B4B00221A70AEE7E91800005C2400007C2400009C240000B8240000D0240000E42400000825000092
:4002800028250000950200006481FF1F302500003825000080B500AF01F066FB0346002B0CBF01230023DBB2184601F03FFB01F0B9FB024B01221A7000BF80BD6481FF1F35
:4002C00080B500AF00F052FF0023184680BD00BF80B584B000AF03463A60FB710B46BB71FB790021184601F02DF90346FB73FB7B002B1DD1BB79184601F0FEF90346FB73F7
:40030000FB7B002B14D1FB790121184601F076F90346FB73FB7B002B0AD1012001F02CFA03461A463B681A7001F0BAF9002302E001F0B6F9012318461037BD4680BD00BF91
:4003400090B585B000AF3B600346FB710B46BB711346BB80FB790021184601F0F3F803467B737B7B002B33D1BB79184601F0C4F903467B737B7B002B2AD1FB790121184641
:4003800001F03CF903467B737B7B002B20D1BB88FB810DE0BA88FB89D31A1A463B689C18012001F0E9F903462370FB89013BFB81FB89012BEED8BB88013B3A68D418002009
:4003C00001F0DAF90346237001F06AF9002302E001F066F9012318461437BD4690BD00BF80B584B000AF0346FB710B46BB7113467B71FB790021184601F0A4F80346FB7312
:40040000FB7B002B15D1BB79184601F075F90346FB73FB7B002B0CD17B79184601F06CF90346FB73FB7B002B03D101F039F9002302E001F035F9012318461037BD4680BDEB
:4004400080B584B000AF0346FB71FB790021184601F078F80346FB7301F022F9FB7B002B01D1002300E0012318461037BD4680BD80B500AFFFF724FF00F010FA034618467B
:4004800080BD00BF80B500AF5720FFF7D9FF0346002B01D1002300E00123184680BD00BF80B584B000AF786007F10E031946002000F0A4FA0346FB73BB7B23F07F03DAB23C
:4004C0007B681A70FB7B18461037BD4680BD00BF80B500AF8022F021022000F021FB0346184680BD80B500AF0022BF21022000F017FB0346184680BD80B500AF0022DF21D8
:40050000022000F00DFB0346184680BD80B500AF0022FD21022000F003FB0346184680BD80B582B000AF78607968042000F066FA034618460837BD4680BD00BF80B582B016
:4005400000AF78607968062000F058FA034618460837BD4680BD00BF2DE9F04385B000AF0021042000F0C2FA0346FB73FB7B002B4FD10021062000F0B9FA0346FB73FB7B19
:40058000002B46D1FB1C1946092000F037FA0346FB73FB7803F007037B737B7B032B06D0072B07D0022B08D10123BB7305E00223BB7302E00323BB7300BFBA7B13465B00B3
:4005C00099186B461E464B1EBB600B461A464FF000034FEAC30949EA52794FEAC2080B461A464FF00003DD0045EA5275D4000B460733DB08DB00ADEB030D6B4600337B606E
:400600007A68BB7B1946012000F00AF80346FB73B546FB7B18461437BD46BDE8F08300BF80B584B000AF03463A60FB710B46BB71FB799BB2BA7992B202FB03F39BB21A46C9
:4006400052001344FB81FA893B6807215720FFF777FE0346002B01D1002300E0012318461037BD4680BD00BF80B586B000AF03463A60FB710B46BB71FB799BB2BA7992B2F6
:4006800002FB03F39BB21A4652001344FB8200237B7500237B7407F111031A460A215720FFF716FE7B7C03F00303DBB27B740021572000F047FF072001F01EF80121572036
:4006C00000F09CFFA6E0BB799BB21A46520013447B82FA8A7B8AD31AFB823B6893F860300133DAB23B6883F860203B6893F8603003F00703DAB23B6883F860200023FB73DD
:40070000012001F039F80346BB73012001F034F803467B73012001F02FF803463B7307F10C0107F108030422184601F05DFABB68C3F31103BB60BA687B7CC3F1040322FA8E
:4007400003F3BB603B6893F860301946BA683B6843F82120BB79012B2CD90023FB73012001F00AF80346BB73012001F005F803467B73012001F000F803463B7307F10C013D
:4007800007F108030422184601F02EFABB68C3F31103BB60BA687B7CC3F1040322FA03F3BB603B6893F860301A46B9683B68083243F82210BB79022B2CD90023FB730120EF
:4007C00000F0DAFF0346BB73012000F0D5FF03467B73012000F0D0FF03463B7307F10C0107F108030422184601F0FEF9BB68C3F31103BB60BA687B7CC3F1040322FA03F364
:40080000BB603B6893F860301A46B9683B68103243F82210FB8A002B7FF455AF00F040FF7B7D18461837BD4680BD00BF80B582B000AF0346FB71FB791A461F21082000F01B
:400840006FF9034618460837BD4680BD80B500AF1022EF21082000F063F90346184680BD80B582B000AF0346FB71FB79C3F12003DBB21A46F021082000F052F9034618464E
:400880000837BD4680BD00BF80B500AF00227F21092000F045F90346184680BD80B500AF4022BF21092000F03BF90346184680BD80B582B000AF0346FB71FB791A46F8210A
:4008C000092000F02DF9034618460837BD4680BD80B582B000AF0346FB71FB791A469F210A2000F01DF9034618460837BD4680BD80B582B000AF0346FB71FB791A46E3213B
:400900000A2000F00DF9034618460837BD4680BD80B582B000AF0346FB71FB791A46FC210A2000F0FDF8034618460837BD4680BD80B584B000AF03460A46FB711346BB71DE
:400940000023FB73FB790C33DBB207F10E0219465720FFF7BDFC0346FB73FB7B002B12D1BA7BBB791343DBB2BB73FB790C33DBB2BA7B19465720FFF733FD0346002B04D0AB
:400980000223FB7301E00123FB73FB7B18461037BD4680BD80B582B000AF0021112000F0A5F80346FB71FB79002B05D10021122000F09CF80346FB71FB7918460837BD4617
:4009C00080BD00BF80B582B000AF78607968FF2000F014F8034618460837BD4680BD00BF80B582B000AF78607968FE2000F006F8034618460837BD4680BD00BF80B584B003
:400A000000AF03463960FB710023FB7307F10E02FB7919465720FFF75BFC0346002B03D1BA7B3B681A7001E00123FB73FB7B18461037BD4680BD00BFB0B588B000AF78602E
:400A4000164B07F108041D4628686968AA68EB680FC428692060AB8AA3800023FB770023BB7711E0BB7F07F12002134413F8183C1946786800F014F80346FB77FB7F002B2C
:400A800006D1BB7F0133BB77BB7F152BEAD900E000BFFB7F18462037BD46B0BD4025000080B588B000AF78600B46FB7007F11E02FB7811461846FFF7A1FF0346FB77FB7F24
:400AC000002B0BD1FA78BB7F07F10800064901F09FF807F108027B6810469847FB7F18462037BD4680BD00BF5825000080B584B000AF03460A46FB711346BB710023FB7374
:400B0000BA79FB7919465720FFF76AFC0346002B01D00123FB73FB7B18461037BD4680BD80B584B000AF0346FB710B46BB7113467B7107F10E02FB7911461846FFF75EFF97
:400B40000346FB73FB7B002B0FD1BA7BBB791340DBB2BB73BA7B7B791343DAB2FB7911461846FFF7C3FF0346FB73FB7B18461037BD4680BD80B483B000AF78607B6893F86C
:400B800061301A467B6853F8223018460C37BD4680BC704780B582B000AF786039603A680021786801F02BF800BF0837BD4680BD80B584B000AFF860B9607A607A68B9684B
:400BC000F86801F011F800BF1037BD4680BD00BF80B483B000AF0346FB71FEE780B487B000AF7860396000233B6100237B6127E07B699B007A6813441B68BB60BB68FB73AF
:400C0000BB6823F0FF03BB6014E03B695B003A6813441B781A46BB68134419463B695B003A6813445B780B703B6901333B61FB7B013BFB73FB7B002BE7D17B6901337B6182
:400C40007B690F2BD4D900BF1C37BD4680BC704780B582B000AF304B19221A802F4B18221A702F4B02221A704FF0402308221A702C4B03221A702C4B2C4A1278D2B21A70D4
:400C80002B4B08221A802B4B41F251221A800023FB7019237B6014E0FB785B00DAB2264B1B78DBB203F00103DBB21343DBB203F00303FB704FF4F07000F05AFF7B68013BEA
:400CC0007B607B68002B02D0FB78032BE4D17B68002B02D10320FFF77BFF184B4FF480721A80164B07221A70154B00221A70154B48221A70114B00221A70134B02221A70B5
:400D0000124A124B1B78DBB243F00103DBB2137000BF0837BD4680BD80400040824000400043004000420040A1460040080100492242004020420040254200400440004064
:400D4000064000400840004001400040A243004080B483B000AF0B4B1B78FB710A4AFB7903F00703DBB21370084AFB791B09DBB21370074B44221A7000BF0C37BD4680BC02
:400D8000704700BFCF0100496E5800406F5800407658004080B586B000AF72B64B4A4B4B1B78DBB243F00403DBB213700023FB7513E0FA7D13465B0013445B00444A13446A
:400DC0003B613B691A683B699B889BB219461046FFF7E0FEFB7D0133FB75FB7D092BE8D90023FB751CE0FA7D13469B0013445B00384A1344FB60FB681B68BB60FB685B6804
:400E00007B60FB681A7A5B7A1B0213437B807B881A467968B868FFF7CBFEFB7D0133FB75FB7D012BDFD92C494FF09040FFF7D6FE2A4A2A4B1B78DBB243F00203DBB2137063
:400E4000274A274B1B78DBB243F00203DBB21370244A244B1B78DBB243F04003DBB21370214A214B1B78DBB243F01003DBB213700A221E491E48FFF79BFE08221D491E48D9
:400E8000FFF796FE08221D491D48FFF791FE1D4A1C4B1B78DBB243F00803DBB213701A4B61221A70FFF7D4FE174B81221A70174B01221A70FFF74CFF0E220A491448FFF704
:400EC00077FE00BF1837BD4680BD00BFE84600406C250000A8250000400000480350014013500140A0430040C243004064030048C05100407003004812510040780300485B
:400F000022510040224300400048004004000840B043004080B500AF00F03AFE03461B680C2B00D1FEE7FEE780B584B000AF78600F4B1A687B6813441A460E4BD31A802B51
:400F400009DC0B4B1B68FB60094B1A687B681344074A136007E000F01BFE02460C2313604FF0FF33FB60FB6818461037BD4680BDCC80FF1F8881FF1F80B586B000AF224B7E
:400F80007B61224B3B61204B7B6135E03B691B68FB603B695B68BB603B699B683B6000237B600CE0FB681A68BB681A60BB680433BB60FB680433FB607B6804337B607A68FD
:400FC0003B689A42EED13B69DB683B6000237B6008E0BB6800221A60BB680433BB607B6804337B607A683B689A42F2D13B6910333B617B69013B7B617B69002BC6D100F0E9
:40100000CDFDFFF73FF8FEE7010000001826000080B582B000AF184B184A1A60184A184B1B6843F40073136000237B600FE07B68032B04D8134A7B6852F8233000E0124BE7
:4010400012497A6841F822307B6801337B607B682F2BECD90E4B1B78DAB20E4B1A700E4B0A4A1A60FFF796FE0C4B00221A6000BF0837BD4680BD00BF0CED00E00004FA05DC
:4010800014ED00E000000000150F00000080FF1FBC760040C480FF1F08ED00E0C080FF1F80B500AF144B02221A70144B81221A70134B08221A70134B0F221A70124B00225F
:4010C0001A70124B4FF400421A6007210F2000F029FD0F490F2000F0FDFC0E4B10221A700D4B00221A700D4B00221A700C4B00221A7000BF80BD00BFD6490040C8490040A2
:40110000CA490040DB490040DC49004080E100E09D1100007081FF1F8181FF1F7481FF1F7581FF1F80B582B000AF00F029FD0346FB710C4A0B4B1B78DBB243F00403DBB2DA
:401140001370094A084B1B78DBB243F00403DBB21370FB79184600F017FD00BF0837BD4680BD00BFA5430040B543004080B500AF084B1B78002B04D1FFF792FF054B0122E5
:401180001A70FFF7CFFF044B4FF400421A6000BF80BD00BF6581FF1F00E100E080B582B000AFA74B1B78FB71A64B1B78DBB203F04003DBB2002B00F0A981FB7903F0010388
:4011C000002B00F080819F4B1B78DBB2453B052B00F2758101A252F823F000BFF51100001B130000BF140000BF140000F511000007140000FB7923F02003FB71FB7903F0FA
:401200000A03DBB2082B46D18E4B1B78DBB2452B3AD18D4B1B78DBB2002B0FD08B4A8C4B1B681B78DBB21370854B04221A70894B01221A70834B46221A7044E1864B1B7838
:40124000DBB203F00203002B0FD0844B1B78DBB243F00A03DAB2814B1A707A4B60221A707F4B4FF400421A602DE17E4A7D4B1B78DBB243F01003DBB213707B4B10221A709E
:401280006F4B04221A701EE16D4B00221A706D4B4A221A7017E1FB7903F00A03DBB20A2B37D16E4B1B78DBB263F05F03DAB26B4B1A70694B1B78DBB203F00203002B19D043
:4012C000604B1B78DBB203F00803002B01D0092300E00A23DAB2614B1B78DBB21343DAB25E4B1A70574B60221A705D4B4FF400421A60E8E05B4A5B4B1B78DBB243F01003B5
:40130000DBB21370584B10221A704D4B04221A70D9E0002000F0B0FBD5E0FB7903F00203002B42D14B4B1B78DAB2474B1B78DBB29A4214D2454A464B1B6846490978C9B2CC
:401340000B441B78DBB213703D4B04221A70414B1B78DBB20133DAB23E4B1A70B3E03E4B1B78DBB203F00203002B0FD03B4B1B78DBB243F00A03DAB2384B1A70314B602209
:401380001A70374B4FF400421A609CE0354A354B1B78DBB243F01003DBB21370324B10221A70274B04221A708DE02B4B1B78DBB203F00203002B0FD0284B1B78DBB263F0EB
:4013C0006503DAB2254B1A701E4B60221A70244B4FF400421A6076E0224A224B1B78DBB243F01003DBB213701F4B10221A70144B04221A70194B1B78DBB263F06F03DAB26D
:40140000164B1A705FE0194B1B68194A1278D2B213440E4A1278D2B21A70154B1B78DBB20133DAB2124B1A70114B1B78DAB2114B1B78DBB29A421FD2014B10221A7042E0CE
:40144000D74900407081FF1F7681FF1FD84900407881FF1F7581FF1F8081FF1F8181FF1F80E100E0D6490040D94900407C81FF1F7481FF1F8281FF1F2C4B1B78DBB203F042
:401480000203002B0FD02A4B1B78DBB243F00903DAB2274B1A70274B60221A70264B4FF400421A600FE0254A244B1B78DBB243F01003DBB21370224B00221A7003E0002074
:4014C00000F0DAFA00BFFB7903F02003002B28D0184B1B78DBB203F00803002B01D0012300E00223DAB2124B1B78DBB21343DAB20F4B1A70114A114B1B78DBB223F010034A
:40150000DBB213700B4B10221A700AE0094B1B78DBB203F01003DBB2002B02D1054B10221A7000BF0837BD4680BD00BF8081FF1F8181FF1F7081FF1F80E100E0D6490040A3
:40154000D749004080B485B000AF03460A46FB711346BB710223FB73234B1B78DBB2102B3CD1224B1B78DBB203F00803002B33D11F4B4FF400421A60FB795B00FB71BB796E
:40158000002B07D0FB7943F00103FB71164B49221A7002E0144B45221A70164AFB791370124B01221A7000BF134B1B78DBB203F00103002BF8D0104B1B78DBB203F00A0387
:4015C000DBB20A2B05D1084B10221A700323FB7304E00023FB7301E00123FB73FB7B18461437BD4680BC70477081FF1FD949004080E100E0D8490040D749004080B485B0D7
:4016000000AF03460A46FB711346BB710223FB731F4B1B78DBB203F00403002B31D0FB795B00FB71BB79002B07D0FB7943F00103FB71184B49221A7002E0164B45221A701A
:40164000154AFB791370124B12221A70134B04221A7000BF114B1B78DBB203F00103002BF8D00E4B1B78DBB203F00A03DBB20A2B05D1084B10221A700323FB7301E000230E
:40168000FB73FB7B18461437BD4680BC704700BFD94900407081FF1FD8490040D749004080B483B000AF0223FB71104B1B78DBB203F00403002B12D00C4B10221A700C4B23
:4016C00004221A700B4B10221A7000BF084B1B78DBB203F02103002BF8D00023FB71FB7918460C37BD4680BC704700BFD9490040D74900407081FF1F80B485B000AF034661
:40170000FB710223FB73184B1B78DBB203F00403002B22D0154AFB791370154B04221A70144B46221A7000BF114B1B78DBB203F00103002BF8D00E4B1B78DBB203F00203C3
:40174000002B05D10B4B60221A700023FB7304E0084B60221A700323FB73FB7B18461437BD4680BC704700BFD9490040D8490040D74900407081FF1F80B485B000AF034637
:40178000FB710023FB73164B1B78DBB203F00403002B1FD0134B1B78DBB2492B05D1124B00221A700F4B4A221A7000BF0E4B1B78DBB203F00103002BF8D00C4B1B78FB73FC
:4017C000FB79002B03D0084B10221A7002E0054B60221A70FB7B18461437BD4680BC7047D94900407081FF1FD7490040D849004080B500AF064B1B78002B04D100F00AF829
:40180000034B01221A7000F025F800BF80BD00BF6681FF1F80B400AF094B72221A70094B20221A70084B06221A70084B47221A70074B00221A7000BFBD4680BC704700BFAE
:4018400088650040896500402A6500403A6500408B65004080B582B000AF00F091F90346FB71114A104B1B78DBB243F02003DBB213700E4A0D4B1B78DBB243F01003DBB20B
:4018800013700B4A0A4B1B78DBB243F01003DBB2137000F0D7F8FB79184600F075F900BF0837BD4680BD00BF98650040996500409B65004080B483B000AF0346FB7100BF54
:4018C000074B1B78DBB203F00403002BF8D1054AFB79137000BF0C37BD4680BC704700BF6B6500404B65004080B584B000AF78600023FB810C4B1B78002B10D009E0FB899A
:401900007A6813441B781846FFF7D4FFFB890133FB81FB897A6813441B78002BEFD100BF1037BD4680BD00BF6681FF1F80B485B000AF0346FB710B4B1B78DBB223F00203E0
:40194000FB730849FB795B00DBB203F00203DAB2FB7B1343DBB20B7000BF1437BD4680BC704700BF2051004080B400AF054B1B78DBB203F002035B08DBB21846BD4680BCAC
:40198000704700BF2151004080B582B000AF786000F03CF8786800F009F8072000F018F800F028F800BF0837BD4680BD80B485B000AF7860054B1B68FB60FB686C337A68A5
:4019C0001A6000BF1437BD4680BC704708ED00E080B483B000AF0346FB71054AFB795B01DBB2137000BF0C37BD4680BC704700BF0BE400E080B400AF034B4FF400621A60C8
:401A000000BFBD4680BC704700E100E080B400AF034B4FF400621A6000BFBD4680BC704780E100E080B400AF054B1B78DBB203F010031B09DBB21846BD4680BC704700BFCD
:401A40008C45004080B400AF094A094B1B78DBB243F00103DBB21370064A064B1B78DBB243F00103DBB2137000BFBD4680BC7047A2430040B243004080B483B000AF0346EE
:401A8000FB7101BE00BF0C37BD4680BC704700BF80B582B000AF786008E00C4B1B68184600F066F87B68A3F500437B607B68B3F5004FF2D8064B1B687A6802FB03F31846A4
:401AC00000F056F800BF0837BD4680BDDC80FF1FD480FF1F80B584B000AF03463960FB710F4B1B68FB60FB791F2B02D90020FFF7C3FFFB7903F01F0310339B00FA6813444F
:401B00001B68BB60FB7903F01F0310339B00FA6813443A681A60BB6818461037BD4680BD08ED00E080B582B000AF03460A46FB711346BB71BB79072B02D90020FFF79CFF5C
:401B4000FB791F2B02D90020FFF796FFFB7903F01F0303F1604303F56443BA795201D2B21A7000BF0837BD4680BD00BF000000000230800803D000BF01380046FCD1704782
:401B8000EFF3108072B6704780F31088704700BF014B1868704700BF4081FF1F0E4B70B51E460E4C0025E41AA410A54204D056F8253098470135F8E700F01CFD084B094C1C
:401BC0001E46E41AA4100025A54204D056F8253098470135F8E770BD0026000000260000002600000826000010B5431E0A44914204D011F8014B03F8014FF8E710BD0346DB
:401C00000244934202D003F8011BFAE7704700000EB400B54FF402719CB0ADF814106FF00041049107914FF6FF711DAB02900690084853F8042BADF81610006802A9019318
:401C400000F064F8029B00221A701CB05DF804EB03B070474081FF1F2DE9F0478E6882469E420C46914698463ED88A8912F4906F3AD02568096902236F1A656905EB450597
:401C800095FBF3F57B1C43449D4238BF1D4653050FD5294600F040FB064698B13A462169FFF7A2FFA38923F4906343F08003A38113E02A4600F08EFB064670B921695046C8
:401CC00000F0DEFA0C23CAF80030A3894FF0FF3043F04003A381BDE8F08726613E44266046466561ED1BA560464528BF464649463246206800F0A8FAA36800209B1BA360BA
:401D000023681E442660BDE8F08700002DE9F04F9DB003938B8980461C060D4616460DD50B695BB9402100F0F7FA2860286118B90C23C8F80030CDE040236B6100230993E9
:401D400020238DF82930DFF89CB130238DF82A3037463C4614F8013B1BB9B7EB060910D003E0252BF9D02746F3E74B46324629464046FFF771FF013000F0A780099B4B441E
:401D800009933B78002B00F0A08000234FF0FF3204930793059206938DF853301A930126052221784E4800F041FA671C049B38B14B4A3C46801A06FA00F018430490EFE7D7
:401DC000D90644BF20228DF853201A0744BF2B228DF8532022782A2A03D0079A00210A200BE0039A111D12680391002A10DA524243F00200079204900BE027463B780134A3
:401E0000303B092B03D800FB02320121F5E701B107923B782E2B1ED17B782A2B0AD1039B02371A1D1B680392002BB8BF4FF0FF33059310E0002319460593781C0A240746A8
:401E40003A780130303A092A03D804FB01210123F5E703B1059103223978224800F0E6F940B14023CBEB000003FA00F0049B013718430490397806221B487E1C8DF828103D
:401E800000F0D4F988B1194B33B9039B073323F007030833039314E003AB00932A46144B04A94046AFF3008007E003AB00932A460F4B04A9404600F093F8B0F1FF3F824676
:401EC00003D0099B5344099342E7AB895B0601D4099801E04FF0FF301DB0BDE8F08F00BFBE250000C4250000C825000000000000591C00002DE9F04791461F460A698B68E8
:401F000006469342B8BF1346C9F8003091F843200C46DDF8208012B10133C9F800302368990642BFD9F800300233C9F80030256815F0060510D104F1190A07E00123524699
:401F400039463046C04701301AD00135E368D9F800209B1A9D42F1DB94F843302268003318BF012392060FD5E118302081F843005A1C94F845102244023382F8431003E09E
:401F80004FF0FF30BDE8F08704F1430239463046C0470130F4D02268D9F80050E36802F00602042A08BF5D1B2269A3680CBF25EAE57500259342C4BF9B1AED184FF00009C6
:401FC0001A344D4509D00123224639463046C0470130D5D009F10109F3E70020BDE8F0872DE9F04317460A7E85B06E2A984606460C460C9B01F1430E00F0AE8011D8632ABB
:4020000022D009D8002A00F0BB80582A40F0CA8081F84520834955E0642A1ED0692A1CD0C0E0732A00F0B08009D86F2A2ED0702A40F0B8800A6842F020020A603EE0752ADE
:4020400024D0782A3AD0ADE01A6801F14205111D1960136884F84230A8E021681A6811F0800F02D0111D196008E011F0400F02F10401196002D0B2F9003000E01368002BF0
:402080003CDA2D225B4284F8432037E021681A6811F0800F02D0111D196007E011F0400F02F10401196001D0138800E01368227E5C496F2A14BF0A2208221BE078225A4966
:4020C00084F845202268186812F0800F00F104051D6003D1550601D5038800E00368D00744BF42F0200222601BB9226822F0200222601022002084F8430001E049490A229E
:402100006568002DA56008DB206820F0040020602BB9002D7DD175460CE0002B79D07546B3FBF2F002FB1033CB5C05F8013D03460028F5D1082A0BD12368DA0708D5236920
:4021400062689A42DEBF302305F8013C05F1FF35C5EB0E0323612EE008681A6810F0800F496903D0101D1860136808E010F0400F02F104001860136801D0198000E0196008
:4021800000232361754616E01A68111D1960156800216268284600F049F808B1401B6060636804E004F1420584F8422001232361002384F84330CDF800803B4603AA214666
:4021C0003046FFF797FE013002D14FF0FF3026E023692A4639463046C0470130F5D023689B0710D5002504F1190907E001234A4639463046C0470130E7D00135E368039A8D
:402200009B1A9D42F2DBE068039B9842B8BF184605E00B7804F1420584F842308AE705B0BDE8F083CF250000E025000010B5C9B202449042034605D01C7801308C42F8D10D
:40224000184610BD002010BD884210B501EB020301D8421E0BE09842FBD28118D21AD34204D013F8014D01F8014DF8E710BD994204D011F8014B02F8014FF8E710BD000047
:4022800038B50546002944D051F8043C0C1F002BB8BFE41800F0D4F81E4A1368114613B96360146030E0A3420DD92268A018834201BF18685B681218226063600C6023E09B
:4022C000A24203D813465A68002AF9D118681918A1420BD12168014458188242196013D110685268014419605A600DE002D90C232B6009E021686018824201BF1068526875
:402300000918216062605C602846BDE8384000F098B838BD6C81FF1F70B5CD1C25F0030508350C2D38BF0C25002D064601DBA94202D90C23336046E000F082F8234B1C688A
:402340001A462146A1B10B685B1B0ED40B2B03D90B60CC18CD501EE08C420BBF63684B681360636018BF0C4615E00C464968E9E7174C23681BB9304600F052F8206029465F
:40238000304600F04DF8431C18D0C41C24F00304A0420DD12560304600F053F804F10B00231D20F00700C31A0ED05A42E25070BD211A304600F034F80130EBD10C233360B1
:4023C000304600F03EF8002070BD00BF6C81FF1F6881FF1FF8B5074615460E4621B91146BDE8F840FFF798BF1AB9FFF749FF2846F8BD00F027F885420ED929463846FFF74B
:402400008BFF044650B131462A46FFF7EDFB31463846FFF735FF01E03046F8BD2046F8BD38B5064C0023054608462360FEF77CFD431C02D1236803B12B6038BD8481FF1FBC
:402440007047704751F8040C0028BEBF091851F8043CC01804387047000000002A2A2A2A2A2A2A2A2A2A2A2A2A2A2A2A2A2A2A2A2A2A2A2A2A2A0D0A0000000020202020A0
:4024800020202020204D415833303130312020202020202020200D0A0000000044657669636520666F756E64206F6E20493243206275730D0A0000005265766973696F6E33
:4024C0002049443A203078253032580D0A000000506172742049443A203078253032580D0A000000526567697374657273206265666F726520636F6E6669677572617469F5
:402500006F6E0D0A0000000052656769737465727320616674657220636F6E66696775726174696F6E0D0A000D0A0D0A0000000025640D0A0000000025756C0D0A00000023
:40254000000102030405060708090A0C0D0E0F11121F2021FEFF00005B3078253032585D202D203078253032580D0A00C84900401900005100401000305100404000F051D7
:402580000040100000000140001000140140000480180140800300400140000A004C0140000200500140200060520040DC020048060000180140E402004880004300232D42
:4025C000302B2000686C4C006566674546470030313233343536373839414243444546003031323334353637383961626364656600000000F8B500BFF8BC08BC9E467047B9
:402600004D00000011100000F8B500BFF8BC08BC9E4670472900000028260000C880FF1F8000000040000000000000008881FF1F00366E01C05D0000180000000000E02E01
:402640000000000000000000000000000000000000000000000000000000000000000000BC2500000000000000000000000000000000000000000000000000000000000079
:402680000000000000000000000000000000000000000000000000000000000000000000E080FF1F000000000000000000000000000000000000000000000000000000009C
:4026C00000000000000000000000000000000000000000000000000000000000000000000000000000000000000000000000000000000000000000000000000000000000DA
:402700000000000000000000000000000000000000000000000000000000000000000000000000000000000000000000000000000000000000000000000000000000000099
:402740000000000000000000000000000000000000000000000000000000000000000000000000000000000000000000000000000000000000000000000000000000000059
:402780000000000000000000000000000000000000000000000000000000000000000000000000000000000000000000000000000000000000000000000000000000000019
:020000040003F7
:0200000480007A
:4000000001450040036500400315014002170140141801403B190140701A0140551B01400242014001430140054801400F4901400A4C01400C4D01400250014001510140D9
:400040006402887289388B0FE008E401EA01E204E6088A049204960299019A02A401A801AC01B002B204B501B601BB08BE05BF10D418D804D904DB04DF0103080410050892
:400080000641071009110A200C100E610F10102211101501160217281A011B451E641F44201821082208251127102E0A2F0433203540360A37103D083E60451847404E12FB
:4000C0004F9057085B015E04630A6C226D107540762977288404C0F2C2FEC4F7CAE0CCF4CE70D070D230D641D80CE204E402E6080580071308100AAC0F0C100912D014149A
:40010000152C17431A031C0C1E711F08201021712240230E25712620270628DC2A2230E031C0330F341F353039223A023B083F104002454049FF4A074BFF4C404D204EF076
:400140004F055008580459045A045F01604061A862406320801381118204836884138530860C888089308A208C408E208F039208940A9503961498E099229B189C209EC029
:40018000A103A304A615A703A8E0A903AC03AE14AF03B010B10CB20FB340B530B6E0B703BA08BE01BF01C026C104C50BC60EC7C0C825C9FFCAFFCBFFCEF0CF44D00CD401F1
:4001C000D804D904DA04DB04DF01E6C0EA40EB02020405050602070408800A240B400C200D880F441080110413101514160119011A041B201C401D841F80200421082350DD
:40020000250426202745288029052A042D092E402F843080310834103628380839043B403D103E023F8440044480460448804C044E105004550156415C415D205F086001CA
:4002400062408A028B488D21911092409388950199089C109E429F41A020A208A340A504A720C0F2C2FFC4EECAF3CC6ACEFAD0A4D220D6F0E008E401EA013E10CE2096103B
:40028000822085089610E220E61012201640722075088220864099089A20AA10C430DC80DE20E010E480EA801080132014407B107F40808084408740C40EDE0310407340AF
:4002C00083108740884093409780A710AB20C408DC01E20110011C0103C000000280000043000000400000001C0023043F180000081C00611F002023337F0C00023C00422F
:400300000010230003040000040800000C670018010000002C400F1F1038400000020A080000500065030200010C000E11FFFFFF62A0F0410C00000000000212040404046F
:40034000000000010000000000004002001030100010101200000000000000000000000000000000830050808300830000000000000B0B0000000000000202000000000045
:40038000000000000000000000000000000000000000000000000000000000000000000000000000000000000000000000000000000000000000000000000000000000003D
:4003C00000000000000000000000000000000000000000000000000000000000000000000000000000000000000000000000000000000000000000000000000000000000FD
:4004000000000000000000000000000000000000000000000000000000000000000000000000000000000000000000000000000000000000000000000000000000000000BC
:40044000000000000000000000000000000000000000000000000000000000000000000000000000000000000000000000000000000000000000000000000000000000007C
:0200000490006A
:0400000000004005B7
:0200000490105A
:04000000BC90ACAF55
:0200000490303A
:0200000076592F
:0200000490402A
:4000000000000000000000000000000000000000000000000000000000000000000000000000000000000000000000000000000000000000000000000000000000000000C0
:400040000000000000000000000000000000000000000000000000000000000000000000000000000000000000000000000000000000000000000000000000000000000080
:400080000000000000000000000000000000000000000000000000000000000000000000000000000000000000000000000000000000000000000000000000000000000040
:4000C0000000000000000000000000000000000000000000000000000000000000000000000000000000000000000000000000000000000000000000000000000000000000
:0200000490501A
:0C00000000012E16106900012E2586C29A
:00000001FF