:400000000080002011000000D51B0000D51B000080B500AF024A034B1B68136001F00CFEBC760040FA46004010B5054C237833B9044B13B10448AFF300800123237010BD2C
:400040008081FF1F00000000FC520000084B10B51BB108490848AFF300800848036803B910BD074B002BFBD0BDE81040184700BF000000008481FF1FFC520000C880FF1FF6
:400080000000000080B5ADF6480D04AF07F5D263002283F8802107F5D263002283F88121B14BC7F81C38022387F81B3807F2596300221A70C823C7F814380023C7F83438D6
:4000C0000023C7F830380023C7F828380123C7F8243800F0D9FA02F0EBF9642002F05AFB00F0DCFA0346002B42D1012002F0A0FABB1D00221A70BB1D184600F0E9FCFB1D30
:40010000184600F0F3FC994802F070FAD7F81C0800F018FD00F048FC642002F03BFB00F039FC00F0E1FA192000F016FC00F00AFC202000F0F7FB1F21002000F07FFC1F211F
:40014000012000F07BFC402000F048FC032000F065FC042000F052FC032000F02FFC00F09FFC834802F042FAD7F81C0800F0EAFC804802F08BFA804802F07AFB00F0DAFAD0
:4001800062B684E107F25963184600F095FA07F259631B78002B00F0778107F25B63184600F0BAFA07F25A63184600F0A7FA07F25A631B781A4607F25B631B78D31AC7F8D8
:4001C0002C38D7F82C38002B04DCD7F82C382033C7F82C38D7F82C38D8B2684B1B7807F5D26297F81B1800F0EBFA654B1B68002B40F093800023C7F8283887E05F4B1B7863
:40020000194607F5D26393F881311A46D7F828381A4407F5D26353F8222007F1080343F82120564B1B78194607F5D26393F881311A46D7F828381A4407F5D263203253F80B
:40024000222007F54A7343F821204C4B1B780133DAB24A4B1A704B4802F0C8F907F5D26393F881311A46D7F828381A4407F5D263203253F8222007F25C634349184603F0B8
:40028000F9FB07F25C63184602F0B0F93F4802F0ADF907F5D26393F881311A46D7F828381A4407F5D26353F8222007F25C633649184603F0DFFB07F25C63184602F096F968
:4002C0002E4B1B781A4607F25C633149184603F0D1FB07F25C63184602F088F9274B1B781A46D7F814389A420BDA2A4802F07EF9284802F07BF9274802F078F9264802F096
:4003000075F9D7F828380133C7F82838D7F82828D7F82C389A42FFF671AF184B1B781A46D7F814389A42C0F2AF8007F2546107F1080207F54A7007F24B63029307F24C6312
:40034000019307F2536300930B46D7F8141800F097FCD7F81438DBB2323BDAB2074B1A703223C7F820383AE0ED2500000053000024530000B50400005D160000A481FF1F8A
:40038000A081FF1F44530000485300005053000054530000585300005C530000D7F82038A3F1320207F10803D7F8201853F8211007F1080343F82210D7F82038A3F1320254
:4003C00007F54A73D7F8201853F8211007F54A7343F82210D7F820380133C7F82038D7F82028D7F814389A42D8DB2C4802F0FEF807F254631A6807F25C632949184603F05F
:4004000039FB07F25C63184602F0F0F8254802F0EDF807F25C63D7F830282349184603F029FB07F25C63184602F0E0F807F24C631B68322B28DD07F24C631B689F2B23DC33
:4004400007F24C631B68D7F834281344C7F83438D7F82438032B12D1D7F83438134A82FB0312DB17D31AC7F834380023C7F82438D7F83438C7F830380023C7F83438D7F877
:4004800024380133C7F82438094B00221A60084B1B68002B3FF476AE73E600BF6053000048530000645300006853000056555555A081FF1F80B500AF02F0D8F80346002BC3
:4004C0000CBF01230023DBB2184602F0B1F802F02BF900BF80BD00BF80B500AF01F0A6FC0023184680BD00BF80B584B000AF03463A60FB710B46BB71FB790021184601F0D7
:4005000081FE0346FB73FB7B002B1DD1BB79184601F052FF0346FB73FB7B002B14D1FB790121184601F0CAFE0346FB73FB7B002B0AD1012001F080FF03461A463B681A709E
:4005400001F00EFF002302E001F00AFF012318461037BD4680BD00BF90B585B000AF3B600346FB710B46BB711346BB80FB790021184601F047FE03467B737B7B002B33D1A7
:40058000BB79184601F018FF03467B737B7B002B2AD1FB790121184601F090FE03467B737B7B002B20D1BB88FB810DE0BA88FB89D31A1A463B689C18012001F03DFF0346E5
:4005C0002370FB89013BFB81FB89012BEED8BB88013B3A68D418002001F02EFF0346237001F0BEFE002302E001F0BAFE012318461437BD4690BD00BF80B584B000AF0346F7
:40060000FB710B46BB7113467B71FB790021184601F0F8FD0346FB73FB7B002B15D1BB79184601F0C9FE0346FB73FB7B002B0CD17B79184601F0C0FE0346FB73FB7B002B9D
:4006400003D101F08DFE002302E001F089FE012318461037BD4680BD80B584B000AF0346FB71FB790021184601F0CCFD0346FB7301F076FEFB7B002B01D1002300E0012374
:4006800018461037BD4680BD80B500AFFFF724FF00F08AF90346184680BD00BF80B500AF5720FFF7D9FF0346002B01D1002300E00123184680BD00BF80B584B000AF786062
:4006C00007F10E031946002000F01EFA0346FB73BB7B23F07F03DAB27B681A70FB7B18461037BD4680BD00BF80B500AF8022F021022000F09BFA0346184680BD80B582B04C
:4007000000AF78607968042000F0FEF9034618460837BD4680BD00BF80B582B000AF78607968062000F0F0F9034618460837BD4680BD00BF80B582B000AF0021042000F063
:400740005BFA0346FB71FB79002B10D10021062000F052FA0346FB71FB79002B07D13B461A460221012000F007F80346FB71FB7918460837BD4680BD80B584B000AF0346C5
:400780003A60FB710B46BB71FB799BB2BA7992B202FB03F39BB21A4652001344FB81FA893B6807215720FFF7D7FE0346002B01D1002300E0012318461037BD4680BD00BF18
:4007C00080B588B000AFBA607B600346FB730B46BB73FB7B9BB2BA7B92B202FB03F39BB21A4652001344FB8300237B7700237B7607F119031A460A215720FFF775FE7B7E0E
:4008000003F00303DBB27B760021572001F0FAFC072001F0D1FD0121572001F04FFD76E0BB7B9BB21A46520013447B83FA8B7B8BD31AFB83BB6893F880310133DAB2BB68EE
:4008400083F88021BB6893F8803103F01F03DAB2BB6883F880210023FB75012001F0ECFD0346BB75012001F0E7FD03467B75012001F0E2FD03463B7507F1140107F11003E5
:400880000422184602F072FC3B69C3F311033B613A697B7EC3F1040322FA03F33B61BB6893F8803119463A69BB6843F82120BB7B012B2CD90023FB75012001F0BDFD034636
:4008C000BB75012001F0B8FD03467B75012001F0B3FD03463B7507F1140107F110030422184602F043FC3B69C3F311033B613A697B7EC3F1040322FA03F33B61BB6893F883
:4009000080311A463969BB68203243F82210FB8B002B85D101F024FDFB7B18462037BD4680BD00BF80B582B000AF0346FB71FB791A461F21082000F079F903461846083790
:40094000BD4680BD80B500AF1022EF21082000F06DF90346184680BD80B582B000AF0346FB71FB79C3F12003DBB21A46F021082000F05CF9034618460837BD4680BD00BF49
:4009800080B500AF80227F21092000F04FF90346184680BD80B500AF00227F21092000F045F90346184680BD80B500AF4022BF21092000F03BF90346184680BD80B582B02D
:4009C00000AF0346FB71FB791A46F821092000F02DF9034618460837BD4680BD80B582B000AF0346FB71FB791A469F210A2000F01DF9034618460837BD4680BD80B582B025
:400A000000AF0346FB71FB791A46E3210A2000F00DF9034618460837BD4680BD80B582B000AF0346FB71FB791A46FC210A2000F0FDF8034618460837BD4680BD80B584B0DA
:400A400000AF03460A46FB711346BB710023FB73FB790C33DBB207F10E0219465720FFF743FD0346FB73FB7B002B12D1BA7BBB791343DBB2BB73FB790C33DBB2BA7B1946CF
:400A80005720FFF7B9FD0346002B04D00223FB7301E00123FB73FB7B18461037BD4680BD80B582B000AF0021112000F0A5F80346FB71FB79002B05D10021122000F09CF874
:400AC0000346FB71FB7918460837BD4680BD00BF80B582B000AF78607968FF2000F014F8034618460837BD4680BD00BF80B582B000AF78607968FE2000F006F803461846E0
:400B00000837BD4680BD00BF80B584B000AF03463960FB710023FB7307F10E02FB7919465720FFF7E1FC0346002B03D1BA7B3B681A7001E00123FB73FB7B18461037BD4620
:400B400080BD00BFB0B588B000AF7860164B07F108041D4628686968AA68EB680FC428692060AB8AA3800023FB770023BB7711E0BB7F07F12002134413F8183C1946786867
:400B800000F014F80346FB77FB7F002B06D1BB7F0133BB77BB7F152BEAD900E000BFFB7F18462037BD46B0BD7053000080B588B000AF78600B46FB7007F11E02FB78114692
:400BC0001846FFF7A1FF0346FB77FB7F002B0BD1FA78BB7F07F10800064902F04BFF07F108027B6810469847FB7F18462037BD4680BD00BF8853000080B584B000AF03460A
:400C00000A46FB711346BB710023FB73BA79FB7919465720FFF7F0FC0346002B01D00123FB73FB7B18461037BD4680BD80B584B000AF0346FB710B46BB7113467B7107F1CA
:400C40000E02FB7911461846FFF75EFF0346FB73FB7B002B0FD1BA7BBB791340DBB2BB73BA7B7B791343DAB2FB7911461846FFF7C3FF0346FB73FB7B18461037BD4680BD3B
:400C8000B0B5AEB004AFF860B9607A603B600023C7F884300023C7F880300023C7F8A4300023C7F8A0300FE0D7F8A0309B00FA6813441B68D7F8A4201344C7F8A430D7F897
:400CC000A0300133C7F8A030D7F8A020BB689A42EADBBB68D7F8A420B2FBF3F3C7F8A4300023C7F8A03013E0D7F8A0309B00FA6813441B68D7F8A420D31A1946B84AD7F867
:400D0000A03042F82310D7F8A0300133C7F8A030D7F8A020BB689A42E6DB0023C7F8A03028E0AF4AD7F8A03052F82320D7F8A0300133AB4951F823301A44D7F8A030023351
:400D4000A74951F823301A44D7F8A0300333A44951F823301344002B00DA03339B1019469F4AD7F8A03042F82310D7F8A0300133C7F8A030D7F8A030C32BD2DD0023C7F81A
:400D800094300023C7F8A0300EE0954AD7F8A03052F82330D7F894201344C7F89430D7F8A0300133C7F8A030D7F8A030C32BECDDD7F894308B4A82FB03129211DB17D31A23
:400DC000C7F89430D7F894301D2B02DC1E23C7F89430D7F894303C2B02DD3C23C7F894300023C7F8A0300DE0D7F8A0309B0007F1A8021344002243F8842CD7F8A030013386
:400E0000C7F8A030D7F8A0300E2BEDDD07F1600107F124000F2302931C230193D7F894300093C4236E4A00F099FA0023C7F890303B6E012B3ADD0123C7F8A0301BE0D7F81F
:400E4000A0309B0007F1A802134453F8842CD7F8A030013B9B0007F1A8010B4453F8843CD31AD7F890201344C7F89030D7F8A0300133C7F8A0303B6ED7F8A0209A42DEDB31
:400E80003B6E013BD7F8902092FBF3F3C7F8903040F6B832D7F8903092FBF3F2D7F8BC301A60D7F8C03001221A7008E0D7F8BC3040F2E7321A60D7F8C03000221A70002324
:400EC000C7F8A0301CE0D7F8A0309B00FA6813441B681946424AD7F8A03042F82310D7F8A0309B007A6813441B6819463E4AD7F8A03042F82310D7F8A0300133C7F8A030AF
:400F0000D7F8A020BB689A42DDDB3B6EBB670023FB670023C7F89C300023C7F8A0300DE0D7F8A0309B0007F1A8021344002243F8982CD7F8A0300133C7F8A030D7F8A03079
:400F4000042BEDDD0023C7F8A03017E0D7F8A0309B0007F1A802134453F8843CC82B08DD3B6840F2E7321A60D7F8B83000221A70D9E1D7F8A0300133C7F8A030D7F8A02043
:400F8000BB6F9A42E2DB0023C7F8A03039E14FF07F43C7F88C304FF07F43C7F88830D7F8A03001339B0007F1A802134453F8842CD7F8A0309B0007F1A8010B4453F8843C17
:400FC000D31A032B40F31881D7F8A0309B0007F1A802134453F8843CC7F8983033E000BFB081FF1F9D8297535486FF1FD84AD7F8983052F82320D7F888309A420ADDD44A75
:40100000D7F8983052F82330C7F88830D7F89830C7F88030CF4AD7F8983052F82320D7F88C309A420ADDCB4AD7F8983052F82330C7F88C30D7F89830C7F88430D7F898300F
:401040000133C7F89830D7F8A03001339B0007F1A802134453F8842CD7F898309A42C5DCD7F8A03001339B0007F1A802134453F8843CB84A52F82320D7F8A0309B0007F10C
:40108000A8010B4453F8843CB24951F82330D21AD7F8A0309B0007F1A8010B4453F8843CD7F88410CB1A03FB02F37B67D7F8A0309B0007F1A802134453F8843CA54A52F8E1
:4010C0002320D7F8A03001339B0007F1A8010B4453F8841CD7F8A0309B0007F1A800034453F8843CCB1A796F91FBF3F313447B67984AD7F8843052F823207B6FD31A7B6715
:40110000D7F8A03001339B0007F1A802134453F8843C8F4A52F82320D7F8A0309B0007F1A8010B4453F8843C894951F82330D21AD7F8A0309B0007F1A8010B4453F8843C13
:40114000D7F88010CB1A03FB02F33B67D7F8A0309B0007F1A802134453F8843C7C4A52F82320D7F8A03001339B0007F1A8010B4453F8841CD7F8A0309B0007F1A80003449B
:4011800053F8843CCB1A396F91FBF3F313443B676F4AD7F8843052F823203B6FD31A3B677B6FD7F8882002FB03F3DB11FB663B6FD7F88C2002FB03F3DB11BB66BB6E002B10
:4011C0001ADDD7F89C30042B16DCFB6E002B13D0FB6E642202FB03F2BB6E92FBF3F2D7F89C309B0007F1A8010B4443F8982CD7F89C300133C7F89C30D7F8A0300133C7F838
:40120000A030BB6F5A1ED7F8A0309A423FF7BFAE07F11003D7F89C10184600F093F9D7F89C30DA0F13445B107B667B6E012B14DD7B6E013B9B0007F1A802134453F8982CC9
:401240007B6E9B0007F1A8010B4453F8983C1344DA0F13445B10FB6707E07B6E9B0007F1A802134453F8983CFB67FB6F022B52DDFB6F642B4FDCF86F01F0ACFC2CA3D3E91D
:40128000002301F00DFD03460C4625461C46F86F01F0A0FC02460B462046294601F000FD03460C461846214623A3D3E9002301F021FE03460C4625461C46F86F01F08AFCFD
:4012C0001FA3D3E9002301F0EBFC02460B46104619464FF00002204B01F00CFE02460B462046294601F02AFB03460C461846214615A3D3E9002301F021FB03460C461846FF
:40130000214601F0DFFE02463B681A60D7F8B83001221A7007E03B6840F2E7321A60D7F8B83000221A70A837BD46B0BDAFF3008048E17A14AE8746C0000000000088C3400F
:40134000B4C876BE9F5A3E40AE47E17A14B65740B081FF1F5486FF1F0000594080B586B002AFF860B9607A603B60BB6900933B687A68B968F86800F013F8FB697A68B96894
:40138000F86800F07FF8BB681A683B6A9A42A8BF1A46BB681A6000BF1037BD4680BD00BF80B487B000AFF860B9607A603B6001237B61BB6800221A605AE07B699B007A687D
:4013C00013441A683B6A9A424FDD7B699B007A6813441A687B6903F18043013B9B0079680B441B689A4240DD01233B6102E03B6901333B617A693B691A443B689A420DDAAE
:401400007B699B007A6813441A6879693B690B449B0079680B441B689A42E8D07B699B007A6813441A6879693B690B449B0079680B441B689A4213DDBB681B680E2B0FDCC8
:40144000BB681B68591CBA6811609B00FA6813447A691A603B6901337A6913447B6103E07A693B6913447B6102E07B6901337B613B685A1E7B699A429FDC00BF1C37BD4641
:4014800080BC704780B588B000AFF860B9607A603B60BB681B681A46F968786800F094F84FF0FF33FB613EE0BB681B687B61FB695A1CBB681A60FB690133BB612CE0BB69AC
:4014C0009B00FA6813441A68FB69B3F1FF3F05D0FB699B00F9680B441B6801E04FF0FF33D31A3B613A693B689A4204DC3B685A423B699A420DDDBB681B68591CBA68116095
:401500009B00FA681344BA699200F9680A4412681A60BB690133BB61BA697B699A42CEDBFB690133FB61BB681A68FB699A42BBDCBB681B681946F86800F004F800BF203728
:40154000BD4680BD80B487B000AF7860396001237B612FE07B699B007A6813441B68FB607B693B610FE03B699B007A681A443B6903F18043013B9B0079680B441B681360B5
:401580003B69013B3B613B69002B0ADD3B6903F18043013B9B007A6813441A68FB689A42E1DC3B699B007A681344FA681A607B6901337B617A693B689A42CBDB00BF1C37AE
:4015C000BD4680BC704700BF80B489B000AFF860B9607A600123FB6137E0FB699B00BA6813441B687B61FB69BB610FE0BB699B00BA681A44BB6903F18043013B9B00B968E0
:401600000B441B681360BB69013BBB61BB69002B12DD7B699B00FA6813441A68BB6903F18043013B9B00B9680B441B689B00F9680B441B689A42D9DCBB699B00BA681344B5
:401640007A691A60FB690133FB61FA697B689A42C3DB00BF2437BD4680BC704780B500AF00F088FF03461A46074B1A70074B01221A60054B1B78184600F00AF8642001F0D2
:4016800089F800BF80BD00BF7489FF1FA081FF1F80B582B000AF0346FB71FB79612B34D1FFF76EF9FFF780F9642001F073F8FFF771F9FFF719F81920FFF74EF9FFF742F90A
:4016C0002020FFF72FF91F210020FFF7B7F91F210120FFF7B3F90020FFF780F90320FFF79DF90420FFF78AF90320FFF767F9FFF7D7F9504800F07AFF4F4B00221A7001F031
:4017000013F8FFF717F8FFF745F9FB79622B2BD1FFF74AF9642001F03DF8FFF73BF9FEF7E3FF1920FFF718F9FFF70CF92020FFF7F9F81F210020FFF781F91F210120FFF7FB
:401740007DF92020FFF74AF90320FFF767F90420FFF754F90320FFF731F9FFF7A1F9354800F044FFFEF7E6FFFB79632B2DD1FFF71BF9642001F00EF8FFF70CF9FEF7B4FF15
:401780001920FFF7E9F8FFF7DDF82020FFF7CAF81F210020FFF752F91F210120FFF74EF94020FFF71BF90320FFF738F90420FFF725F90320FFF702F9FFF772F91D4800F061
:4017C00015FF00F0B1FFFEF7B5FFFB79642B2DD1FFF7EAF8642000F0DDFFFFF7DBF8FEF783FF1920FFF7B8F8FFF7ACF82020FFF799F81F210020FFF721F91F210120FFF71C
:401800001DF96020FFF7EAF80320FFF707F90420FFF7F4F80320FFF7D1F8FFF741F9054800F0E4FE00F080FFFEF784FF00BF0837BD4680BD9C530000A481FF1F80B582B02C
:4018400000AF786039603A680021786801F099FC00BF0837BD4680BD80B584B000AFF860B9607A607A68B968F86801F07FFC00BF1037BD4680BD00BF80B483B000AF03464B
:40188000FB71FEE780B487B000AF7860396000233B6100237B6127E07B699B007A6813441B68BB60BB68FB73BB6823F0FF03BB6014E03B695B003A6813441B781A46BB684B
:4018C000134419463B695B003A6813445B780B703B6901333B61FB7B013BFB73FB7B002BE7D17B6901337B617B69112BD4D900BF1C37BD4680BC704780B582B000AF344BA1
:4019000019221A80334B18221A70334B40F2E7321A80324B1B221A70314B02221A704FF0402308221A702F4B03221A702E4B2F4A1278D2B21A702E4B08221A802D4B41F2CE
:4019400051221A800023FB7019237B6014E0FB785B00DAB2284B1B78DBB203F00103DBB21343DBB203F00303FB704FF4F07000F0CFFF7B68013B7B607B68002B02D0FB785B
:40198000032BE4D17B68002B02D10320FFF774FF1A4B4FF480721A80184B07221A70184B00221A70174B48221A70144B00221A70154B02221A70154A144B1B78DBB243F0FE
:4019C0000303DBB2137000BF0837BD4680BD00BF804000408240004084400040864000400043004000420040A14600400801004922420040204200402542004004400040D9
:401A0000064000400840004001400040A243004080B483B000AF0B4B1B78FB710A4AFB7903F00703DBB21370084AFB791B09DBB21370074B44221A7000BF0C37BD4680BC35
:401A4000704700BFCF0100496E5800406F5800407658004080B586B000AF72B64B4A4B4B1B78DBB243F00403DBB213700023FB7513E0FA7D13465B0013445B00444A13449D
:401A80003B613B691A683B699B889BB219461046FFF7D4FEFB7D0133FB75FB7D092BE8D90023FB751CE0FA7D13469B0013445B00384A1344FB60FB681B68BB60FB685B6843
:401AC0007B60FB681A7A5B7A1B0213437B807B881A467968B868FFF7BFFEFB7D0133FB75FB7D012BDFD92C494FF09040FFF7CAFE2A4A2A4B1B78DBB243F00203DBB21370AF
:401B0000274A274B1B78DBB243F00203DBB21370244A244B1B78DBB243F04003DBB21370214A214B1B78DBB243F01003DBB213700A221E491E48FFF78FFE08221D491E4818
:401B4000FFF78AFE08221D491D48FFF785FE1D4A1C4B1B78DBB243F00803DBB213701A4B61221A70FFF7C8FE174B81221A70174B01221A70FFF74CFF0E220A491448FFF75B
:401B80006BFE00BF1837BD4680BD00BFE8460040B0530000EC530000480000480350014013500140A0430040C24300409C030048C0510040A803004812510040B003004806
:401BC00022510040224300400048004004000840B043004080B500AF01F09CFA03461B680C2B00D1FEE7FEE780B584B000AF78600F4B1A687B6813441A460E4BD31A802B26
:401C000009DC0B4B1B68FB60094B1A687B681344074A136007E001F07DFA02460C2313604FF0FF33FB60FB6818461037BD4680BDCC80FF1F9089FF1F80B586B000AF224B42
:401C40007B61224B3B61204B7B6135E03B691B68FB603B695B68BB603B699B683B6000237B600CE0FB681A68BB681A60BB680433BB60FB680433FB607B6804337B607A6830
:401C80003B689A42EED13B69DB683B6000237B6008E0BB6800221A60BB680433BB607B6804337B607A683B689A42F2D13B6910333B617B69013B7B617B69002BC6D101F01B
:401CC0002FFAFEF7DFF9FEE7010000008855000080B582B000AF184B184A1A60184A184B1B6843F40073136000237B600FE07B68032B04D8134A7B6852F8233000E0124B7D
:401D000012497A6841F822307B6801337B607B682F2BECD90E4B1B78DAB20E4B1A700E4B0A4A1A60FFF796FE0C4B00221A6000BF0837BD4680BD00BF0CED00E00004FA050F
:401D400014ED00E000000000D51B00000080FF1FBC760040C480FF1F08ED00E0C080FF1F80B500AF144B02221A70144B81221A70134B08221A70134B0F221A70124B0022C6
:401D80001A70124B4FF400421A6006210F2000F04BFD0F490F2000F01FFD0E4B10221A700D4B00221A700D4B00221A700C4B00221A7000BF80BD00BFD6490040C849004091
:401DC000CA490040DB490040DC49004080E100E05D1E00007589FF1F8589FF1F7889FF1F7989FF1F80B582B000AF00F099FD0346FB710C4A0B4B1B78DBB243F00403DBB2A0
:401E00001370094A084B1B78DBB243F00403DBB21370FB79184600F087FD00BF0837BD4680BD00BFA5430040B543004080B500AF084B1B78002B04D1FFF792FF054B0122A8
:401E40001A70FFF7CFFF044B4FF400421A6000BF80BD00BFA581FF1F00E100E080B582B000AFA74B1B78FB71A64B1B78DBB203F04003DBB2002B00F0A981FB7903F001037B
:401E8000002B00F080819F4B1B78DBB2453B052B00F2758101A252F823F000BFB51E0000DB1F00007F2100007F210000B51E0000C7200000FB7923F02003FB71FB7903F061
:401EC0000A03DBB2082B46D18E4B1B78DBB2452B3AD18D4B1B78DBB2002B0FD08B4A8C4B1B681B78DBB21370854B04221A70894B01221A70834B46221A7044E1864B1B786C
:401F0000DBB203F00203002B0FD0844B1B78DBB243F00A03DAB2814B1A707A4B60221A707F4B4FF400421A602DE17E4A7D4B1B78DBB243F01003DBB213707B4B10221A70D1
:401F40006F4B04221A701EE16D4B00221A706D4B4A221A7017E1FB7903F00A03DBB20A2B37D16E4B1B78DBB263F05F03DAB26B4B1A70694B1B78DBB203F00203002B19D076
:401F8000604B1B78DBB203F00803002B01D0092300E00A23DAB2614B1B78DBB21343DAB25E4B1A70574B60221A705D4B4FF400421A60E8E05B4A5B4B1B78DBB243F01003E8
:401FC000DBB21370584B10221A704D4B04221A70D9E0002000F0D2FBD5E0FB7903F00203002B42D14B4B1B78DAB2474B1B78DBB29A4214D2454A464B1B6846490978C9B2DE
:402000000B441B78DBB213703D4B04221A70414B1B78DBB20133DAB23E4B1A70B3E03E4B1B78DBB203F00203002B0FD03B4B1B78DBB243F00A03DAB2384B1A70314B60223C
:402040001A70374B4FF400421A609CE0354A354B1B78DBB243F01003DBB21370324B10221A70274B04221A708DE02B4B1B78DBB203F00203002B0FD0284B1B78DBB263F01E
:402080006503DAB2254B1A701E4B60221A70244B4FF400421A6076E0224A224B1B78DBB243F01003DBB213701F4B10221A70144B04221A70194B1B78DBB263F06F03DAB2A0
:4020C000164B1A705FE0194B1B68194A1278D2B213440E4A1278D2B21A70154B1B78DBB20133DAB2124B1A70114B1B78DAB2114B1B78DBB29A421FD2014B10221A7042E002
:40210000D74900407589FF1F7A89FF1FD84900407C89FF1F7989FF1F8489FF1F8589FF1F80E100E0D6490040D94900408089FF1F7889FF1F8689FF1F2C4B1B78DBB203F008
:402140000203002B0FD02A4B1B78DBB243F00903DAB2274B1A70274B60221A70264B4FF400421A600FE0254A244B1B78DBB243F01003DBB21370224B00221A7003E00020A7
:4021800000F0FCFA00BFFB7903F02003002B28D0184B1B78DBB203F00803002B01D0012300E00223DAB2124B1B78DBB21343DAB20F4B1A70114A114B1B78DBB223F010035B
:4021C000DBB213700B4B10221A700AE0094B1B78DBB203F01003DBB2002B02D1054B10221A7000BF0837BD4680BD00BF8489FF1F8589FF1F7589FF1F80E100E0D6490040B2
:40220000D749004080B485B000AF03460A46FB711346BB710223FB73234B1B78DBB2102B3CD1224B1B78DBB203F00803002B33D11F4B4FF400421A60FB795B00FB71BB79A1
:40224000002B07D0FB7943F00103FB71164B49221A7002E0144B45221A70164AFB791370124B01221A7000BF134B1B78DBB203F00103002BF8D0104B1B78DBB203F00A03BA
:40228000DBB20A2B05D1084B10221A700323FB7304E00023FB7301E00123FB73FB7B18461437BD4680BC70477589FF1FD949004080E100E0D8490040D749004080B485B0FD
:4022C00000AF03460A46FB711346BB710223FB731F4B1B78DBB203F00403002B31D0FB795B00FB71BB79002B07D0FB7943F00103FB71184B49221A7002E0164B45221A704E
:40230000154AFB791370124B12221A70134B04221A7000BF114B1B78DBB203F00103002BF8D00E4B1B78DBB203F00A03DBB20A2B05D1084B10221A700323FB7301E0002341
:40234000FB73FB7B18461437BD4680BC704700BFD94900407589FF1FD8490040D749004080B483B000AF0223FB71104B1B78DBB203F00403002B12D00C4B10221A700C4B49
:4023800004221A700B4B10221A7000BF084B1B78DBB203F02103002BF8D00023FB71FB7918460C37BD4680BC704700BFD9490040D74900407589FF1F80B485B000AF034687
:4023C000FB710223FB73184B1B78DBB203F00403002B22D0154AFB791370154B04221A70144B46221A7000BF114B1B78DBB203F00103002BF8D00E4B1B78DBB203F00203F7
:40240000002B05D10B4B60221A700023FB7304E0084B60221A700323FB73FB7B18461437BD4680BC704700BFD9490040D8490040D74900407589FF1F80B485B000AF03465D
:40244000FB710023FB73164B1B78DBB203F00403002B1FD0134B1B78DBB2492B05D1124B00221A700F4B4A221A7000BF0E4B1B78DBB203F00103002BF8D00C4B1B78FB732F
:40248000FB79002B03D0084B10221A7002E0054B60221A70FB7B18461437BD4680BC7047D94900407589FF1FD7490040D849004080B500AF064B1B78002B04D100F00AF84F
:4024C000034B01221A7000F025F800BF80BD00BFA681FF1F80B400AF094B72221A70094B20221A70084B06221A70084B47221A70074B00221A7000BFBD4680BC704700BFA2
:4025000088650040896500402A6500403A6500408B65004080B582B000AF00F001FA0346FB71114A104B1B78DBB243F02003DBB213700E4A0D4B1B78DBB243F01003DBB2CD
:4025400013700B4A0A4B1B78DBB243F01003DBB2137000F0F9F8FB79184600F0E5F900BF0837BD4680BD00BF98650040996500409B65004080B483B000AF0023FB710C4B83
:402580001B78BB71BB7903F02003002B09D0094B1B78FB71BB7903F01E03002B01D00023FB71FB7918460C37BD4680BC704700BF696500404865004080B483B000AF0346C4
:4025C000FB7100BF074B1B78DBB203F00403002BF8D1054AFB79137000BF0C37BD4680BC704700BF6B6500404B65004080B584B000AF78600023FB810C4B1B78002B10D0CF
:4026000009E0FB897A6813441B781846FFF7D4FFFB890133FB81FB897A6813441B78002BEFD100BF1037BD4680BD00BFA681FF1F80B485B000AF0346FB710B4B1B78DBB23E
:4026400023F00203FB730849FB795B00DBB203F00203DAB2FB7B1343DBB20B7000BF1437BD4680BC704700BF2051004080B400AF054B1B78DBB203F002035B08DBB21846C6
:40268000BD4680BC704700BF2151004080B582B000AF786000F03CF8786800F009F8062000F018F800F028F800BF0837BD4680BD80B485B000AF7860054B1B68FB60FB68DB
:4026C0006C337A681A6000BF1437BD4680BC704708ED00E080B483B000AF0346FB71054AFB795B01DBB2137000BF0C37BD4680BC704700BF0BE400E080B400AF034B4FF416
:4027000000621A6000BFBD4680BC704700E100E080B400AF034B4FF400621A6000BFBD4680BC704780E100E080B400AF054B1B78DBB203F010031B09DBB21846BD4680BC5A
:40274000704700BF8C45004080B400AF094A094B1B78DBB243F00103DBB21370064A064B1B78DBB243F00103DBB2137000BFBD4680BC7047A2430040B243004080B483B063
:4027800000AF0346FB7101BE00BF0C37BD4680BC704700BF80B582B000AF786008E00C4B1B68184600F0B4F87B68A3F500437B607B68B3F5004FF2D8064B1B687A6802FBA5
:4027C00003F3184600F0A4F800BF0837BD4680BDDC80FF1FD480FF1F80B584B000AF03463960FB710F4B1B68FB60FB791F2B02D90020FFF7C3FFFB7903F01F0310339B0059
:40280000FA6813441B68BB60FB7903F01F0310339B00FA6813443A681A60BB6818461037BD4680BD08ED00E080B582B000AF03460A46FB711346BB71BB79072B02D9002027
:40284000FFF79CFFFB791F2B02D90020FFF796FFFB7903F01F0303F1604303F56443BA795201D2B21A7000BF0837BD4680BD00BF80B582B000AF786000F03CF8786800F051
:4028800009F8062000F018F800F028F800BF0837BD4680BD80B485B000AF7860054B1B68FB60FB6840337A681A6000BF1437BD4680BC704708ED00E080B483B000AF03461F
:4028C000FB71054AFB795B01DBB2137000BF0C37BD4680BC704700BF00E400E080B400AF034B01221A6000BFBD4680BC704700BF00E100E080B400AF034B01221A6000BF32
:40290000BD4680BC704700BF80E100E0000000000230800803D000BF01380046FCD17047EFF3108072B6704780F31088704700BF81F0004102E000BF83F0004330B54FEA59
:4029400041044FEA430594EA050F08BF90EA020F1FBF54EA000C55EA020C7FEA645C7FEA655C00F0E2804FEA5454D4EB5555B8BF6D420CDD2C4480EA020281EA030382EA7F
:40298000000083EA010180EA020281EA0303362D88BF30BD11F0004F4FEA01314FF4801C4CEA113102D0404261EB410113F0004F4FEA03334CEA133302D0524263EB430307
:4029C00094EA050F00F0A780A4F10104D5F1200E0DDB02FA0EFC22FA05F2801841F1000103FA0EF2801843FA05F359410EE0A5F120050EF1200E012A03FA0EFC28BF4CF045
:402A0000020C43FA05F3C01851EBE37101F0004507D54FF0000EDCF1000C7EEB00006EEB0101B1F5801F1BD3B1F5001F0CD349085FEA30004FEA3C0C04F101044FEA445204
:402A400012F5800F80F09A80BCF1004F08BF5FEA500C50F1000041EB045141EA050130BD5FEA4C0C404141EB010111F4801FA4F10104E9D191F0000F04BF01460020B1FA41
:402A800081F308BF2033A3F10B03B3F120020CDA0C3208DD02F1140CC2F10C0201FA0CF021FA02F10CE002F11402D8BFC2F1200C01FA02F120FA0CFCDCBF41EA0C01904020
:402AC000E41AA2BF01EB0451294330BD6FEA04041F3C1CDA0C340EDC04F11404C4F1200220FA04F001FA02F340EA030021FA04F345EA030130BDC4F10C04C4F1200220FA0A
:402B000002F001FA04F340EA0300294630BD21FA04F0294630BD94F0000F83F4801306BF81F480110134013D4EE77FEA645C18BF7FEA655C29D094EA050F08BF90EA020FA6
:402B400005D054EA000C04BF1946104630BD91EA030F1EBF0021002030BD5FEA545C05D14000494128BF41F0004130BD14F580043CBF01F5801130BD01F0004545F0FE41B4
:402B800041F470014FF0000030BD7FEA645C1ABF194610467FEA655C1CBF0B46024650EA013406BF52EA033591EA030F41F4002130BD00BF90F0000F04BF0021704730B5A8
:402BC0004FF4806404F132044FF000054FF0000150E700BF90F0000F04BF0021704730B54FF4806404F1320410F0004548BF40424FF000013EE700BF42004FEAE2014FEA1F
:402C000031014FEA02701FBF12F07F4393F07F4F81F06051704792F0000F14BF93F07F4F704730B54FF4607401F0004521F0004120E700BF50EA010208BF704730B54FF056
:402C400000050AE050EA010208BF704730B511F0004502D5404261EB41014FF4806404F132045FEA915C3FF4DCAE4FF003025FEADC0C18BF03325FEADC0C18BF033202EBA8
:402C8000DC02C2F1200300FA03FC20FA02F001FA03FE40EA0E0021FA02F11444C1E600BF70B54FF0FF0C4CF4E06C1CEA11541DBF1CEA135594EA0C0F95EA0C0F00F0DEF8B2
:402CC0002C4481EA030621EA4C5123EA4C5350EA013518BF52EA033541F4801143F4801338D0A0FB02CE4FF00005E1FB02E506F00042E0FB03E54FF00006E1FB03569CF0D6
:402D0000000F18BF4EF0010EA4F1FF04B6F5007F64F5407404D25FEA4E0E6D4146EB060642EAC62141EA55514FEAC52040EA5E504FEACE2EB4F1FD0C88BFBCF5E06F1ED831
:402D4000BEF1004F08BF5FEA500E50F1000041EB045170BD06F0004646EA010140EA020081EA0301B4EB5C04C2BFD4EB0C0541EA045170BD41F480114FF0000E013C00F3AF
:402D8000AB8014F1360FDEBF002001F0004170BDC4F10004203C35DA0C341BDC04F11404C4F1200500FA05F320FA04F001FA05F240EA020001F0004221F0004110EBD3705F
:402DC00021FA04F642EB06015EEA430E08BF20EAD37070BDC4F10C04C4F1200500FA04F320FA05F001FA04F240EA020001F0004110EBD37041F100015EEA430E08BF20EAE7
:402E0000D37070BDC4F1200500FA05F24EEA020E20FA04F301FA05F243EA020321FA04F001F0004121FA04F220EA020000EBD3705EEA430E08BF20EAD37070BD94F0000FE1
:402E40000FD101F00046400041EB010111F4801F08BF013CF7D041EA060195F0000F18BF704703F00046520043EB030313F4801F08BF013DF7D043EA0603704794EA0C0F53
:402E80000CEA135518BF95EA0C0F0CD050EA410618BF52EA4306D1D181EA030101F000414FF0000070BD50EA410606BF1046194652EA430619D094EA0C0F02D150EA013695
:402EC00013D195EA0C0F05D152EA03361CBF104619460AD181EA030101F0004141F0FE4141F470014FF0000070BD41F0FE4141F4780170BD70B54FF0FF0C4CF4E06C1CEA2F
:402F000011541DBF1CEA135594EA0C0F95EA0C0F00F0A7F8A4EB050481EA030E52EA03354FEA013100F088804FEA03334FF0805545EA131343EA12634FEA022245EA111509
:402F400045EA10654FEA00260EF000419D4208BF964244F1FD0404F5407402D25B084FEA3202B61A65EB03055B084FEA32024FF480104FF4002CB6EB020E75EB030E22BFCD
:402F8000B61A754640EA0C005B084FEA3202B6EB020E75EB030E22BFB61A754640EA5C005B084FEA3202B6EB020E75EB030E22BFB61A754640EA9C005B084FEA3202B6EBD7
:402FC000020E75EB030E22BFB61A754640EADC0055EA060E18D04FEA051545EA16754FEA06164FEAC30343EA52734FEAC2025FEA1C1CC0D111F4801F0BD141EA00014FF056
:4030000000004FF0004CB6E711F4801F04BF01430020B4F1FD0C88BFBCF5E06F3FF6AFAEB5EB030C04BFB6EB020C5FEA500C50F1000041EB045170BD0EF0004E4EEA11319B
:4030400014EB5C04C2BFD4EB0C0541EA045170BD41F480114FF0000E013C90E645EA060E8DE60CEA135594EA0C0F08BF95EA0C0F3FF43BAF94EA0C0F0AD150EA01347FF4AC
:4030800034AF95EA0C0F7FF425AF104619462CE795EA0C0F06D152EA03353FF4FDAE1046194622E750EA410618BF52EA43067FF4C5AE50EA41047FF40DAF52EA43057FF49B
:4030C000EBAE12E74FEA410212F5001215D211D56FF47873B3EB625212D94FEAC12343F0004343EA505311F0004F23FA02F018BF404270474FF00000704750EA013005D148
:4031000011F0004008BF6FF0004070474FF00000704700BF014B1868704700BF4081FF1F0E4B70B51E460E4C0025E41AA410A54204D056F8253098470135F8E702F012FAF8
:40314000084B094C1E46E41AA4100025A54204D056F8253098470135F8E770BD7055000070550000705500007855000010B5431E0A44914204D011F8014B03F8014FF8E737
:4031800010BD03460244934202D003F8011BFAE770472DE9F04788B0149F002B1E461299B8BF03F1004327F02007B6BF1E4600232D23462F1446109DDDF84CA00B7003D028
:4031C000452F03D1013501E0032300E0022307AA049206AA03928DE828042246334600F003FD472F804602D1119BDB0728D5462F08EB050911D198F80030302B0AD100223D
:4032000000232046314602F031F818B9C5F10105CAF80050DAF800309944002200232046314602F023F808B9302202E0CDF81C9006E0079B994503D9591C07911A70F8E7A8
:403240004046079B159AC8EB0303136008B0BDE8F087034673B50029B8BF494203F8022BB4BF2D222B22092942701ADD0DF1070216460A2591FBF5F405FB1411092C01F176
:40328000300102F8011D2146F4DC3031541E02F8011CB4421A460AD214F8012B03F8012BF7E71A463024214402F8024B5970101A02B070BD2DE9F04F91B00C46DDF868805E
:4032C00016461F46054601F027FA03681846099300F0F4FB00230E93D8F800300A90073323F0070303F1080294F81890D4F800B0C8F80020D3E90023C4E91223D4F84CA0B0
:40330000D4F848802AF000430B934FF0FF32A74B40460B9901F0DCFFA0B94FF0FF32A34B40460B9901F0B6FF60B9002200234046514601F0A5FF10B12D2384F843309C4B28
:403340009C4A0AE0424653464046514601F0C0FF002800F09281984B984AB9F1470F8CBF90469846032323612BF0040323604FF0000A3DE0B9F1670F00F08A81B9F1470FD0
:4033800000F0868123600193636800210DF13302059002920093424653460691CDF81090CDF80CE02846FFF7F4FE09F0DF03472B804600F08481B9F1650F0D9900F28D8134
:4033C00001394A4604F150000D91FFF742FF0E9A82468318012A236100F37C812268D10700F178819DF8333013B12D2384F84330009733460FAA2146284600F09FF90130A1
:4034000002D14FF0FF3096E123685A0501D4236965E0B9F1650F40F2D580D4E912010022002301F023FF78B30123654A31462846B8470130E5D00E9B0D9A9A420BDB236812
:40344000D80708D423689B0740F111814FF0000804F1190906E10A9B099A31462846B8470130CED04FF0000804F11A090E9B013B9845E7DA01234A4631462846B8470130B6
:40348000BFD008F10108F1E70D9B002B29DC01234B4A31462846B8470130B2D00D9B23B90E9B13B92368D907CCD50A9B099A31462846B8470130A4D04FF0000904F11A0A44
:4034C0000D9B5B42994509DA0123524631462846B847013095D009F10109F1E70E9B4246A7E00E9AA36D9A42A8BF1A46002A914606DC4FF0000A29EAE97904F11A0B11E0F5
:403500001346314642462846B8470130F1D178E701235A4631462846B84701303FF471AF0AF1010AA36DC9EB03029245F0DB08EB03090D9A0E9B9A420FDB2368DA070CD476
:403540000E9B0D9A9844C9EB08089B1A9845A8BF9846B8F1000F08DC0FE00A9B099A31462846B8470130EBD14BE743464A4631462846B84701303FF444AF4FF0000928EA00
:40358000E87804F11A0A09E00123524631462846B84701303FF435AF09F101090D9A0E9B9B1AC8EB03039945EEDB4BE7FFFFEF7F02540000065400000A5400000E5400004A
:4035C000125400000E9A012A01DCDB0738D50123424631462846B84701303FF412AF0A9B099A31462846B84701303FF40AAFD4E912010022002301F039FE20B14FF0000873
:4036000004F11A090EE00E9B08F10102013B19E001234A4631462846B84701303FF4F1AE08F101080E9B013B9845F1DB534604F1500231462846B84701307FF403AFE0E69F
:403640004246012331462846B8470130EED1D8E601234A4631462846B84701303FF4D1AE08F10108E3680F9A9B1A9845F0DBE0680F9B9842B8BF18465DE062680EA8531C71
:403680000DF1340E4BF480637FF474AE062201E012B90122626075E6002106910DF133018DE80C00236005904246CDF81090CDF80CE0029153462846FFF76BFD80460D9B78
:4036C000D81C02DB626893421DDDA9F102095FFA89F970E60133236184E6B9F1660F14D10029636807DD216113B92268D2071DD501330B4419E013B92268D00701D5023335
:4037000013E0012311E04FF067090D9B0E9A934205DB22682361D10708D5013305E0002BD4BFC3F102030123134423610D9B4FF0000AA36556E611B0BDE8F08F2DE9F04714
:4037400091461F460A698B6806469342B8BF1346C9F8003091F843200C46DDF8208012B10133C9F800302368990642BFD9F800300233C9F80030256815F0060510D104F165
:40378000190A07E00123524639463046C04701301AD00135E368D9F800209B1A9D42F1DB94F843302268003318BF012392060FD5E118302081F843005A1C94F84510224465
:4037C000023382F8431003E04FF0FF30BDE8F08704F1430239463046C0470130F4D02268D9F80050E36802F00602042A08BF5D1B2269A3680CBF25EAE57500259342C4BF8B
:403800009B1AED184FF000091A344D4509D00123224639463046C0470130D5D009F10109F3E70020BDE8F0872DE9F04317460A7E85B06E2A984606460C460C9B01F1430EF4
:4038400000F0AE8011D8632A22D009D8002A00F0BB80582A40F0CA8081F84520834955E0642A1ED0692A1CD0C0E0732A00F0B08009D86F2A2ED0702A40F0B8800A6842F03B
:4038800020020A603EE0752A24D0782A3AD0ADE01A6801F14205111D1960136884F84230A8E021681A6811F0800F02D0111D196008E011F0400F02F10401196002D0B2F905
:4038C000003000E01368002B3CDA2D225B4284F8432037E021681A6811F0800F02D0111D196007E011F0400F02F10401196001D0138800E01368227E5C496F2A14BF0A22BA
:4039000008221BE078225A4984F845202268186812F0800F00F104051D6003D1550601D5038800E00368D00744BF42F0200222601BB9226822F0200222601022002084F8C5
:40394000430001E049490A226568002DA56008DB206820F0040020602BB9002D7DD175460CE0002B79D07546B3FBF2F002FB1033CB5C05F8013D03460028F5D1082A0BD1BB
:403980002368DA0708D5236962689A42DEBF302305F8013C05F1FF35C5EB0E0323612EE008681A6810F0800F496903D0101D1860136808E010F0400F02F10400186013689E
:4039C00001D0198000E0196000232361754616E01A68111D1960156800216268284600F0A7FE08B1401B6060636804E004F1420584F8422001232361002384F84330CDF8FC
:403A000000803B4603AA21463046FFF797FE013002D14FF0FF3026E023692A4639463046C0470130F5D023689B0710D5002504F1190907E001234A4639463046C0470130F4
:403A4000E7D00135E368039A9B1A9D42F2DBE068039B9842B8BF184605E00B7804F1420584F842308AE705B0BDE8F08314540000255400000EB400B54FF402719CB0ADF8AC
:403A800014106FF00041049107914FF6FF711DAB02900690084853F8042BADF81610006802A9019301F03AFA029B00221A701CB05DF804EB03B070474081FF1F034613F819
:403AC000012B002AFBD1181A013870472DE9F74F03690C6980469C427FDC013C01F114074FEA840E00F1140606EB0E0357F82450019356F824300135B3FBF5F507EB0E0954
:403B0000C5B34FF0000A3846B446D34650F8043B9AB205FB02A21B0C4FEA124A05FB03A392B2C2EB0B0BBCF800204FEA134A5A441FFA83FBDCF800308145CBEB134303EBF0
:403B4000224392B242EA03424FEA234B4CF8042BDCD256F80E306BB9019B043B9E421A4602D3C8F8104005E01268043B002AF8D1013CF3E7404600F0F6FF00282BDB3046FC
:403B800001354FF0000E57F8042B036891B2C1EB0E0E120C99B27144C2EB134303EB214389B24FEA234EB94541EA034340F8043BE9D256F8242006EB840362B9043B9E4251
:403BC0001A4602D3C8F8104005E01268043B002AF8D1013CF3E7284600E0002003B0BDE8F08F0000000000002DE9F04F456A95B08246219CCDE9022345B9102000F090FD3F
:403C0000CAF82400456085600560C560DAF82430196859B15A68012393404A608B60504600F0C9FDDAF8243000221A60039BA04A002BBDBF01232360039B0023BCBF23F058
:403C400000430393DDF80C80A8BF236028F000431B0D1B0593421DD142F20F73209A1360029B43B9934A944BC8F31300002814BF1846104600E09048229B002B00F04685AA
:403C8000C37813B100F1080300E0C31C229A136000F03CBDDDE90245002200232046294601F0E4FA074658B1209A01231360229B002B00F01E8581481860013800F026BDCD
:403CC00012AB019313AB009322462B46504600F0C5FFC8F30A56049056B1C5F3130343F07F51204641F44011A6F2FF3611971DE0139B129E1E4406F23243202B0ADD029A1F
:403D000006F21240C3F1400322FA00F008FA03F3184304E0C3F12000029B03FA00F0FEF749FF0123A1F1F871013E11930022644BFEF702FE58A3D3E90023FEF7B1FF58A322
:403D4000D3E90023FEF7FAFD044630460D46FEF741FF55A3D3E90023FEF7A2FF02460B4620462946FEF7EAFD04460D46FFF7AAF90022834600232046294601F081FA58B1EB
:403D80005846FEF727FF02460B462046294601F06DFA08B90BF1FF3BBBF1160F0DD8DDE90223484901EBCB01D1E9000101F086FA30B10BF1FF3B002300E00123109300E0B6
:403DC0001090129B9E1B731E079343BFC3F10008002307934FF00008BBF1000F06DB079BCDF82CB05B440793002705E00023CBEB0808CBF100070B931E9B092B28D8052B45
:403E0000C4BF043B1E931E9BC8BF0025A3F10203D8BF0125032B20D8DFE803F0060E0204012302E0012308E000230A931F9B002B1DDD9946059321E000230A931F9B0BEBC1
:403E4000030909F10103012B0593B8BF012315E0012500231E930A9501E001230A934FF0FF390022CDF8149012231F9206E04FF001094B46CDF81490CDF87C90DAF8244091
:403E800000226260042101F114029A421CD86268490001326260F6E761436F63A787D23FB3C8608B288AC63FFB799F501344D33F0000F07F365400003F54000013540000AB
:403EC0000000F83F505400006168504600F03EFCDAF8243020601B680693059B0E2B00F25B81002D00F05881DDE90234BBF1000FCDE90E3430DD9F4A0BF00F034FEA2B15D4
:403F000002EBC303E80618CBCDE908340CD5DDE90E01994B05F00F05D3E90823FEF7EAFF0324CDE9020100E00224934E6DB1E90708D5DDE90801D6E90023FEF7B1FECDE9E6
:403F4000080101346D100836F0E7DDE90823DDE90201FEF7CFFF20E0CBF1000505B3DDE90E01844B05F00F0203EBC203D3E90023FEF796FECDE902017F4E2D1100230224A9
:403F800055B1EA0705D5D6E90023FEF789FE013401236D100836F3E71BB1CDE9020100E00224109BE3B1DDE902560022734B2846314601F065F998B1059B8BB1B9F1000F0A
:403FC00040F3E6800BF1FF330893314600226C4B2846FEF765FE0134CDE902014E4602E0059ECDF820B02046FEF7F4FDDDE90223FEF756FE634B0022FEF7A0FCA1F1507377
:4040000004460C931D46D6B9DDE9020100225E4BFEF792FC22460C9BCDE9020101F04EF9002840F03F820C99224601F10043DDE9020101F025F9002840F02B82A8E00A9A2A
:404040004C4B711E002A49D003EBC103D3E9002300204E49FEF74EFF22462B46FEF76CFCCDE90C01069CDDE90201FFF72BF80546FEF7B0FD02460B46DDE90201FEF75CFC34
:40408000DDE90C23303504F8015BCDE9020101F0F7F8002840F01D83DDE9022300203749FEF74AFCDDE90C2301F0EAF8002840F0D180069BE31AB3426ADADDE90C010022BA
:4040C0002F4BFEF7EDFD0022CDE90C01DDE902012B4BFEF7E5FDCDE90201C4E703EBC1012246D1E900012B46FEF7DAFD069BCDE90C011D469C19DDE90201FEF7E3FF064690
:40410000FEF768FD02460B46DDE90201FEF714FC303605F8016BAC42CDE902014FF0000222D11A4BDDE90C01FEF708FC02460B46DDE9020101F0C2F8002840F08B80DDE9AD
:404140000C2300201149FEF7F7FB02460B46DDE9020101F095F8D8B114F8013C621E302B40F0B7821446F7E7054BFEF799FDCDE90201C0E750540000285500000000F03FF6
:404180000000244000001C40000014400000E03FDDE90E34CDE90234139B002B7CDBBBF10E0F79DCAB4B03EBCB03D3E900671F9B002B14DA059B002B11DC40F06C810022EB
:4041C000A54B30463946FEF76BFDDDE9022301F06BF8059D2E46002840F05F8165E1069CDDE9028932463B4640464946FEF782FEFEF768FF0546FEF7EDFC32463B46FEF7C1
:404200004FFD0B46024649464046FEF795FB05F1300E069B04F801EBC3EB040E059B73452DD102460B46FEF789FB8046894602460B463046394601F023F878B942464B46A1
:404240003046394601F012F8002800F04482EB0704D440E2DDF820B000E01C4614F8012C631E392A07D1069A9A42F6D1069930220BF1010B0A701A7801321A702BE2002274
:40428000764BFEF70DFD002200238046894600F0EDFF0028A6D01EE20A9A002A2BD01E9A012A0ADC119A12B103F2334302E0129BC3F136033D46444613E0059B5D1EAF42F7
:4042C000BFBF0B9BEA1B9B180B93059BB6BF2F467D1B0025002BA7BF4446059BC3EB08040023079A01211A4450469844079200F001FB064602E03D4644460A9E5CB1079BBB
:40430000002B08DDA342A8BF2346079AC3EB0808E41AD31A0793002F1DDD0A9BABB18DB131462A46504600F07FFB049A01460646504600F0E8FA04990890504600F03BFAFC
:40434000089B04937A1B06D000E03A460499504600F06AFB04900121504600F0CBFA0B9B05465BB31A460146504600F05DFB1E9B0546012B18DC029B83B9039BC3F31303C4
:4043800073B9039B23F000473F0D3F054FB1079B08F1010801330793012702E0002700E0029F0B9B73B100E000272B6905EB8303186900F052FAC0F1200004E01E9B012BF3
:4043C000D9DD0B9F0120079B184410F01F0008D0C0F12003042B02DDC0F11C0002E006D018461C30079B8044034404440793B8F1000F05DD42460499504600F063FB049070
:40440000079B002B05DD29461A46504600F05AFB0546109B23B32946049800F0A4FB00281EDA00230A220499504600F0DBF90A9B0BF1FF3B0490002B00F05F813146002353
:404440000A22504600F0CEF9B9F1000F06463FDC3BE000BF505400000000144000002440059B002B2BDC1E9B022B28DDDDF81490B9F1000F11D129464B460522504600F0EF
:40448000B1F901460546049800F06DFB00280CDC03E0354600E000252E461F9B069C6FEA030B09E03546DDF820B0069B069A5C1C312313700BF1010B05960026F7E00A9B44
:4044C000DDF8149023B9069CB2E01E9B022BCFDC002C05DD31462246504600F0F3FA06469FB17168504600F031F90446326906F10C01023292000C30FEF738FE012221467D
:40450000504600F0DFFA059000E00596029B069F03F00103079329460498FFF7D7FA3146044600F13008049800F01DFB059A02902946504600F033FBC36802463BB90146D7
:404540000A90049800F00FFB0A9A034600E00123114650460A9300F02EF90A9B53B91E9A42B9079A32B9B8F1390F2AD0029B002B1CDC1DE0029A002A04DB1BD11E9ACAB915
:40458000079ABAB9002B13DD01220499504600F099FA2946049000F0E6FA002803DC07D118F0010F04D0B8F1390F0AD004F131087C1C0CE0002B07F101040BDDB8F1390FD7
:4045C00003D139233B70013756E008F1010887F800806CE0069B2746E31A4B4504F8018C3BD000230A220499504600F0FBF8059B04909E424FF00A024FF0000331465046E3
:4046000004D100F0EFF80646059084E700F0EAF8002306460A220599504600F0E3F8059079E700230A220499504600F0DBF8049029460498FFF74AFA069B00F1300804F83D
:40464000018BE31A4B45ECDB069B0596B9F1010FACBF4B4401331F46002601220499504600F030FA2946049000F07DFA002803DC15D118F0010F12D03C4614F8013C621E9F
:40468000392B09D1069B934204D10BF1010B3123069A02E01446F0E70133137007E03C4614F8013C621E302B01D11446F8E72946504600F080F8059B6BB12EB19E4203D058
:4046C0003146504600F077F80599504600F073F801E0DDF820B00499504600F06CF80023209A23700BF101031360229B1BB11C6001E008480AE0069808E0B9F1000F3FF73A
:40470000E2AE1E9B022B7FF7DEAEB1E615B0BDE8F08F00BF12540000004870474481FF1F024B0146186800F041BB00BF4081FF1F10B5C9B202449042034605D01C780130A1
:404740008C42F8D1184610BD002010BD70B5456A04460E463DB91020FFF7E2FF6062456085600560C560656AEB6843B1636ADB6853F8260078B1026843F8262017E0212260
:404780000421204600F0B8FA636AE860DB68002BECD1002070BD012101FA06F56A1D9200204600F0A9FA0028F3D04660856000230361C36070BD70B5446A06460D463CB961
:4047C0001020FFF7ADFF7062446084600460C4603DB1736A6A68DB6853F82210296043F8225070BD2DE9F04106460C460D691F4601F1140E0023DEF80000013381B202FB14
:404800000171000C0F0C02FB007089B201EB00419D424FEA10474EF8041BECDCD7B1A3689D4212DB616830460131FFF78FFF8046226904F10C01023292000C30FEF796FC3E
:4048400021463046FFF7B7FF444604EB850301355F6125612046BDE8F081030C1B0413B90004102300E0002310F07F4F04BF0002083310F0704F04BF0001043310F0404F6B
:4048800004BF80000233002803DB420003D5581C70471846704720207047036813F007020BD0D90722D49A074BBF5B089B08036003604CBF01200220704799B209B91B0C51
:4048C000102213F0FF0F04BF1B0A0832190704BF1B090432990704BF9B080232D90702D45B0805D00132036010467047002070472020704710B50C460121FFF727FF012205
:404900004461026110BD2DE9F74F14460A69236988469A42BEBF0B46A0461C46D8F81070D4F81090D8F80830D8F8041007EB09069E42C8BF0131FFF709FF00F114052B4672
:4049400005EB860C0022634502D243F8042BFAE704F1140208F1140102EB890301EB87070093009B0192934257D9B2F800B0BBF1000F23D08946AE464FF0000859F8044B48
:40498000BEF800A0A3B20BFB03A34FEA144ADEF8004043444FEA14480BFB0A84F24604EB13449BB243EA04434F454FEA14484AF8043B01D9D646E1E7CEF80480019B043280
:4049C000B3F802A0BAF1000F21D02C4689462B684FF00008B9F800E0B4F802B09BB20AFB0EBEA346F04443EA08434BF8043B59F8043BB4F804E01B0C0AFB03E34F4503EBCC
:404A000018434FEA134801D95C46E3E763600435A7E75CF8043D13B9013E002EF9DC066103B0BDE8F08F00002DE9F843154612F0030206460F4607D0214C013A002354F894
:404A40002220FFF7CFFE0746AD1036D0746A3CB91020FFF765FE7062446084600460C460D6F82480D8F808404CB940F271213046FFF740FF04460023C8F8080003604FF00E
:404A80000008EB070AD5394622463046FFF73BFF814639463046FFF78EFE4F466D100CD0206808B10446ECE7224621463046FFF72AFF2060C0F80080F4E73846BDE8F88371
:404AC000185500002DE9F0470C460746914626694FEA621A56444968A368751CAB4202DA01315B00FAE73846FFF730FE002380461A4600F11401534503DA41F8232001330E
:404B0000F9E72AEAEA73206901EB830319F01F0904F1140101EB800E14D0C9F1200C002208689A4600FA09F0024343F8042B51F8042B8E4522FA0CF2F2D8CAF8042042B18E
:404B4000B51C06E0043B51F8042B8E4543F8042FF9D8013D3846C8F810502146FFF72BFE4046BDE8F08703690A6910B59B1A11D192001430143183180A4453F8044D52F88C
:404B8000041D8C4202D007D3012010BD9842F4D3002010BD184610BD4FF0FF3010BD2DE9F8430C460746114620461546FFF7DBFF061E08D131463846FFF7C8FD012303616B
:404BC0004661BDE8F883BCBF23462C4638466168BABF1D4601260026FFF7B8FD2B69C660266905F1140904F1140101EB860709EB830800F114054FF0000C51F8042B59F801
:404C0000044B93B29C44A3B2240CC3EB0C03C4EB124202EB23429BB24FEA224CC84543EA02428E4645F8042BE7D8BE450ED25EF8041B8AB26244131403EB114392B242EAE5
:404C400003424FEA234C45F8042BEEE755F8043D0BB9013EFAE70661BDE8F8832DE9F3411C4601219046089E099DFFF76FFDC4F31302C4F30A5407460CB142F48012019275
:404C8000B8F1000F19D002A840F8088DFFF705FE009B48B1019AC0F1200102FA01F10B43C2407B61019200E07B61019B002B14BF02210121BB61396107E001A8FFF7EDFD74
:404CC000019B01217B613961203034B1A4F2334404443460C0F1350009E0A0F2324007EB810330601869FFF7B8FDC0EB41102860384602B0BDE8F08138B502FB01F421464D
:404D000000F054F8054618B122460021FEF739FA284638BD38B50546002944D051F8043C0C1F002BB8BFE41800F017FA1E4A1368114613B96360146030E0A3420DD92268A5
:404D4000A018834201BF18685B681218226063600C6023E0A24203D813465A68002AF9D118681918A1420BD12168014458188242196013D110685268014419605A600DE0A1
:404D800002D90C232B6009E021686018824201BF106852680918216062605C602846BDE8384000F0DBB938BDAC81FF1F70B5CD1C25F0030508350C2D38BF0C25002D06460D
:404DC00001DBA94202D90C23336046E000F0C5F9234B1C681A462146A1B10B685B1B0ED40B2B03D90B60CC18CD501EE08C420BBF63684B681360636018BF0C4615E00C466D
:404E00004968E9E7174C23681BB9304600F07AF920602946304600F075F9431C18D0C41C24F00304A0420DD12560304600F096F904F10B00231D20F00700C31A0ED05A4269
:404E4000E25070BD211A304600F05CF90130EBD10C233360304600F081F9002070BD00BFAC81FF1FA881FF1F2DE9F0478E6882469E420C46914698463ED88A8912F4906F90
:404E80003AD02568096902236F1A656905EB450595FBF3F57B1C43449D4238BF1D4653050FD52946FFF782FF064698B13A462169FEF75CF9A38923F4906343F08003A38149
:404EC00013E02A4600F04BF9064670B921695046FFF720FF0C23CAF80030A3894FF0FF3043F04003A381BDE8F08726613E44266046466561ED1BA560464528BF4646494685
:404F00003246206800F00EF9A36800209B1BA36023681E442660BDE8F08700002DE9F04F9DB003938B8980461C060D4616460DD50B695BB94021FFF739FF2860286118B949
:404F40000C23C8F80030CDE040236B610023099320238DF82930DFF89CB130238DF82A3037463C4614F8013B1BB9B7EB060910D003E0252BF9D02746F3E74B463246294699
:404F80004046FFF771FF013000F0A780099B4B4409933B78002B00F0A08000234FF0FF3204930793059206938DF853301A930126052221784E48FFF7BBFB671C049B38B123
:404FC0004B4A3C46801A06FA00F018430490EFE7D90644BF20228DF853201A0744BF2B228DF8532022782A2A03D0079A00210A200BE0039A111D12680391002A10DA5242AD
:4050000043F00200079204900BE027463B780134303B092B03D800FB02320121F5E701B107923B782E2B1ED17B782A2B0AD1039B02371A1D1B680392002BB8BF4FF0FF3385
:40504000059310E0002319460593781C0A2407463A780130303A092A03D804FB01210123F5E703B10591032239782248FFF760FB40B14023CBEB000003FA00F0049B01375A
:4050800018430490397806221B487E1C8DF82810FFF74EFB88B1194B33B9039B073323F007030833039314E003AB00932A46144B04A94046FEF7FEF807E003AB00932A4626
:4050C0000F4B04A94046FEF7AFFBB0F1FF3F824603D0099B5344099342E7AB895B0601D4099801E04FF0FF301DB0BDE8F08F00BF50550000565500005A550000B53200001A
:40510000694E000038B5064C0023054608462360FCF76AFD431C02D1236803B12B6038BD8889FF1F884210B501EB020301D8421E0BE09842FBD28118D21AD34204D013F8FC
:40514000014D01F8014DF8E710BD994204D011F8014B02F8014FF8E710BD70477047F8B5074615460E4621B91146BDE8F840FFF71DBE1AB9FFF7CEFD2846F8BD00F015F84A
:4051800085420ED929463846FFF710FE044650B131462A46FDF7EAFF31463846FFF7BAFD01E03046F8BD2046F8BD51F8040C0028BEBF091851F8043CC01804387047000005
:4051C0004FF0FF3C06E000BF4FF0010C02E000BF4FF0010C4DF804CD4FEA410C7FEA6C5C4FEA430C18BF7FEA6C5C1BD001B050EA410C0CBF52EA430C91EA030F02BF90EAB9
:40520000020F0020704710F1000F91EA030F58BF994208BF90422CBFD8176FEAE37040F0010070474FEA410C7FEA6C5C02D150EA013C07D14FEA430C7FEA6C5CD6D152EA7B
:40524000033CD3D05DF8040B704700BF8446104662468C461946634600E000BF01B5FFF7B7FF002848BF10F1000F01BD4DF808EDFFF7F4FF0CBF012000205DF808FB00BF8C
:405280004DF808EDFFF7EAFF34BF012000205DF808FB00BF4DF808EDFFF7E0FF94BF012000205DF808FB00BF4DF808EDFFF7CEFF94BF012000205DF808FB00BF4DF808EDEE
:4052C000FFF7C4FF34BF012000205DF808FB00BF4FEA410C7FEA6C5C02D150EA013C0AD14FEA430C7FEA6C5C02D152EA033C02D14FF0000070474FF0010070470000000007
:40530000526567697374657273206265666F726520636F6E66696775726174696F6E0D0A0000000052656769737465727320616674657220636F6E66696775726174696F5F
:405340006E0D0A00312C0000256C642C00000000322C000025642C00302C0000300A0000332C0000342C0000256C640A00000000000102030405060708090A0C0D0E0F1145
:40538000121F2021FEFF00005B3078253032585D202D203078253032580D0A004144432052414E474520323034380D0A00000000C84900401900005100401000305100400E
:4053C0004000F0510040100000000140001000140140000480180140800300400140000A004C0140000200500140200060520040140300480600001801401C030048800074
:405400004300494E4600696E66004E414E006E616E00300030313233343536373839414243444546003031323334353637383961626364656600496E66696E697479004E29
:40544000614E00504F534958002E000000000000000000000000F03F000000000000244000000000000059400000000000408F40000000000088C34000000000006AF84054
:405480000000000080842E4100000000D01263410000000084D797410000000065CDCD41000000205FA00242000000E876483742000000A2941A6D42000040E59C30A2422A
:4054C0000000901EC4BCD64200003426F56B0C430080E03779C3414300A0D8855734764300C84E676DC1AB43003D9160E458E143408CB5781DAF154450EFE2D6E41A4B44FC
:4055000092D54D06CFF08044F64AE1C7022DB544B49DD9794378EA4405000000190000007D000000000000000080E03779C34143176E05B5B5B89346F5F93FE9034F384D2E
:40554000321D30F94877825A3CBF737FDD4F1575232D302B2000686C4C0065666745464700000000F8B500BFF8BC08BC9E4670474D000000D11C0000F8B500BFF8BC08BCE9
:405580009E4670472900000098550000C880FF1FB800000010080000000000009089FF1F00366E01C05D0000180000000000E02E00000000000000000000000000000000E5
:4055C0000000000000000000000000000000000000540000000000000000000000000000000000000000000000000000000000000000000000000000000000000000000057
:4056000000000000000000000000000000000000E080FF1F49540000555500005555000055550000555500005555000055550000555500005555000055550000FFFFFFFF59
:40564000FFFFFFFFFFFFFFFFFFFF00000000000000000000000000000000000000000000000000000000000000000000000000000000000000000000000000000000000034
:4056800000000000000000000000000000000000000000000000000000000000000000000000000000000000000000000000000000000000000000000000000000000000EA
:4056C00000000000000000000000000000000000000000000000000000000000000000000000000000000000000000000000000000000000000000000000000000000000AA
:405700000000000000000000000000000000000000000000000000000000000000000000000000000000000000000000000000000000000000000000000000000000000069
:405740000000000000000000000000000000000000000000000000000000000000000000000000000000000000000000000000000000000000000000000000000000000029
:020000040003F7
:0200000480007A
:40000000014500400365004004150140011701401418014040190140711A0140541B0140044001400341014005420140064301400748014012490140084C01400C4D0140E5
:4000400002500140025101406402887289388B0FE008E401EA05EE02E60883018804920298089C01A202A401A801B002B204B401B608B701BE45D418D604D804D904DB043D
:40008000DF010020041005010602071009410A080C500E0A0F2010A0111015401601172519081A011B111D011E2A1F0123012501260A27122C102D402E022F0835013688EA
:4000C00037203A023E883F214450468047404C804E024F2057405B025E20600463426C206D906E04760977248601C0F2C2EBC4FECAF0CCF0CEF1D0D0D230D621D80DE00808
:40010000E608000C02710410058006AC07130F0C100912D01414152C174319711A031B061F08201021712240230E262028DC2A2230E031C0330F341F353039223A023B0865
:400140003F104002454049FF4A074BFF4C404D204EF04F055008580459045A045F01604061A8624063208013810882048314840A86148720882089188AC08C808E208F205A
:40018000920894139501960C98E09B019C039D109E149F0CA101A518A615A8E0AB02AC40AE20AF01B010B106B2E0B301B40FB520B718B908BA20BE01BF11C036C104C50B77
:4001C000C6E0C7C0C829C9FFCAFFCBFFCEF0CF44D00CD401D804D904DA04DB04DF01E6C0EA40EB02000801020410050207210A280B400C040E040F421080110413201514B2
:40020000160219021A081C181D101E401F08211823602404250426802741288429122C402E042F093090311836843710380839043B403D183E023F804110449048804C0418
:400240004E1050045410550157015D285E4188108A038D2191109204930294149608984099089B109E029F41A204A340A410A680A708AF40C0FCC2FEC4EECAF1CC7ECEFA11
:40028000D0C4D220D6F0E008E401EA05301032083780CC709C109F80A6083E109C109F80A608CE20260896109C109F80A608C8802380850896109C109F80C840E610122035
:4002C000164075087B02822086409908A302AA10AB02AC10C430DC80DE20E010E480EAA0EE40132814407B107F4084408710C40EDE031040731083108740884093109780ED
:40030000A710AB28C408DC01E20110011C01002F03C0000002800000430000001F0020041C082300030000E301FF0000001C00E1003C23C233180C003F80000002440000D8
:4003400004E700180CC00000081000002C38101F0F0000C00000A208000004003604050001C00E0006FFFFFF62A0F0410C0000000000021104040404000000010000000012
:4003800000004002001030100010101200000000000000000000000000000000830050808300830000000000000B0B00000000000002020000000000000000000000000006
:4003C00000000000000000000000000000000000000000000000000000000000000000000000000000000000000000000000000000000000000000000000000000000000FD
:4004000000000000000000000000000000000000000000000000000000000000000000000000000000000000000000000000000000000000000000000000000000000000BC
:40044000000000000000000000000000000000000000000000000000000000000000000000000000000000000000000000000000000000000000000000000000000000007C
:40048000000000000000000000000000000000000000000000000000000000000000000000000000000000000000000000000000000000000000000000000000000000003C
:0200000490006A
:0400000000004005B7
:0200000490105A
:04000000BC90ACAF55
:0200000490303A
:02000000AC282A
:0200000490402A
:4000000000000000000000000000000000000000000000000000000000000000000000000000000000000000000000000000000000000000000000000000000000000000C0
:400040000000000000000000000000000000000000000000000000000000000000000000000000000000000000000000000000000000000000000000000000000000000080
:400080000000000000000000000000000000000000000000000000000000000000000000000000000000000000000000000000000000000000000000000000000000000040
:4000C0000000000000000000000000000000000000000000000000000000000000000000000000000000000000000000000000000000000000000000000000000000000000
:0200000490501A
:0C00000000012E16106900012E39BC9181
:00000001FF