:400000000080002011000000091B0000091B000080B500AF024A034B1B68136001F0A6FDBC760040FA46004010B5054C237833B9044B13B10448AFF300800123237010BD2B
:400040004881FF1F000000002C380000084B10B51BB108490848AFF300800848036803B910BD074B002BFBD0BDE81040184700BF000000004C81FF1F2C380000C880FF1F3A
:4000800000000000F0B5ADF65C0D04AF07F5D260002580F8805107F5D260002580F88151D648C7F83408022087F8330807F2596000250570C820C7F82C080020C7F8400860
:4000C0001920C7F82808042087F8270897F827080138C7F8200897F827584FF00006F20042EA5572E90097F827184FF00002D40044EA5174CB0097F827380733DB08DB0080
:40010000ADEB030D04AB0033C7F81C38002387F81B380023C7F8143800F0E8FA02F062F9642002F0AFFAB64802F0D8F9B54802F0D5F9B34802F0D2F900F0E2FA0346002B4B
:4001400072D1B14802F0CAF9012002F0E9F9BB1D00221A70BB1D184600F042FDFB1D184600F04CFDFB1D1B781A4607F25C63A749184602F037FF07F25C63184602F0AEF919
:40018000BB1D1B781A4607F25C63A149184602F029FF07F25C63184602F0A0F99D4802F09DF9D7F8340800F055FD00F085FC642002F068FA00F076FC00F0DCFA00F0E4FAC0
:4001C00000F0CEFA00F0C2FAD7F82838DBB2184600F054FC00F048FC202000F035FC0521002000F0B3FC0521012000F0AFFC1F21022000F0ABFC1F21032000F0A7FC0020D6
:4002000000F074FC032000F091FC002000F07EFC032000F05BFC00F0CBFC7F4802F05EF9D7F8340800F016FD7C4802F057F97C4802F0A4F900F0CEFA62B67A4B1B78012B48
:40024000FBD107F25963184600F068FA07F259631B78002B00F0AA8007F25B63184600F0ABFA07F25A63184600F098FA07F25A631B781A4607F25B631B78D31AC7F8443865
:40028000D7F84438002B04DCD7F844382033C7F8443807F25C63D7F844286349184602F0A1FE07F25C63184602F018F9D7F84438D8B207F5D26297F83318D7F8403800F052
:4002C00011FB0023C7F83C386AE007F5D26393F881311A46D7F83C381A4407F5D26353F8222007F25C635149184602F07BFE07F25C63184602F0F2F807F5D26393F88131AA
:400300001A46D7F83C381A4407F5D263203253F8222007F25C634649184602F063FE07F25C63184602F0DAF807F5D26393F881311A46D7F83C381A4407F5D26353F82210BD
:4003400007F10803D7F8402843F8221007F5D26393F881311A46D7F83C381A4407F5D263203253F8221007F54A73D7F8402843F82210D7F840380133C7F8403807F25C63A0
:40038000D7F840282B49184602F02CFE07F25C63184602F0A3F8D7F83C380133C7F83C38D7F83C28D7F844389A428EDB1D4B00221A70D7F84028D7F82C389A42FFF63DAFCD
:4003C00007F2546107F1080207F54A7007F24B63029307F24C63019307F2536300930B46D7F82C1800F0D4FCD7F82C38323BC7F840383223C7F838383FE000BFDD2400007F
:400400003038000050380000703800008C380000A4380000B8380000DC380000FC380000110500006481FF1F043900000C3900001839000024390000D7F83838A3F13202FC
:4004400007F10803D7F8381853F8211007F1080343F82210D7F83838A3F1320207F54A73D7F8381853F8211007F54A7343F82210D7F838380133C7F83838D7F83828D7F84D
:400480002C389A42D8DB07F254631A6807F25C631B49184602F0A6FD07F25C63184602F01DF807F2536393F900301A4607F25C631449184602F096FD07F25C63184602F020
:4004C0000DF807F24C631A6807F25C630E49184602F088FD07F25C63184601F0FFFF07F24B6393F900301A4607F25C630749184602F078FD07F25C63184601F0EFFF9CE6DD
:400500004439000050390000603900006C39000080B500AF02F022F80346002B0CBF01230023DBB2184601F0FBFF02F075F8024B01221A7000BF80BD6481FF1F80B500AFEF
:4005400001F00EFC0023184680BD00BF80B584B000AF03463A60FB710B46BB71FB790021184601F0E9FD0346FB73FB7B002B1DD1BB79184601F0BAFE0346FB73FB7B002B7C
:4005800014D1FB790121184601F032FE0346FB73FB7B002B0AD1012001F0E8FE03461A463B681A7001F076FE002302E001F072FE012318461037BD4680BD00BF90B585B033
:4005C00000AF3B600346FB710B46BB711346BB80FB790021184601F0AFFD03467B737B7B002B33D1BB79184601F080FE03467B737B7B002B2AD1FB790121184601F0F8FDD1
:4006000003467B737B7B002B20D1BB88FB810DE0BA88FB89D31A1A463B689C18012001F0A5FE03462370FB89013BFB81FB89012BEED8BB88013B3A68D418002001F096FE66
:400640000346237001F026FE002302E001F022FE012318461437BD4690BD00BF80B584B000AF0346FB710B46BB7113467B71FB790021184601F060FD0346FB73FB7B002B6F
:4006800015D1BB79184601F031FE0346FB73FB7B002B0CD17B79184601F028FE0346FB73FB7B002B03D101F0F5FD002302E001F0F1FD012318461037BD4680BD80B584B09F
:4006C00000AF0346FB71FB790021184601F034FD0346FB7301F0DEFDFB7B002B01D1002300E0012318461037BD4680BD80B500AFFFF724FF00F0E0F90346184680BD00BF16
:4007000080B500AF5720FFF7D9FF0346002B01D1002300E00123184680BD00BF80B584B000AF786007F10E031946002000F074FA0346FB73BB7B23F07F03DAB27B681A7078
:40074000FB7B18461037BD4680BD00BF80B500AF8022F021022000F0F1FA0346184680BD80B500AF0022BF21022000F0E7FA0346184680BD80B500AF0022DF21022000F012
:40078000DDFA0346184680BD80B500AF0022FD21022000F0D3FA0346184680BD80B582B000AF78607968042000F036FA034618460837BD4680BD00BF80B582B000AF7860B1
:4007C0007968062000F028FA034618460837BD4680BD00BF2DE9F04385B000AF0021042000F092FA0346FB73FB7B002B4FD10021062000F089FA0346FB73FB7B002B46D16C
:40080000FB1C1946092000F007FA0346FB73FB7803F007037B737B7B032B06D0072B07D0022B08D10123BB7305E00223BB7302E00323BB7300BFBA7B13465B0099186B4640
:400840001E464B1EBB600B461A464FF000034FEAC30949EA52794FEAC2080B461A464FF00003DD0045EA5275D4000B460733DB08DB00ADEB030D6B4600337B607A68BB7B35
:400880001946012000F00AF80346FB73B546FB7B18461437BD46BDE8F08300BF80B584B000AF03463A60FB710B46BB71FB799BB2BA7992B202FB03F39BB21A4652001344B6
:4008C000FB81FA893B6807215720FFF777FE0346002B01D1002300E0012318461037BD4680BD00BF80B588B000AFBA607B600346FB730B46BB73FB7B9BB2BA7B92B202FBBB
:4009000003F39BB21A4652001344FB8300237B7700237B7607F119031A460A215720FFF715FE7B7E03F00303DBB27B760021572001F002FC072001F0D9FC0121572001F037
:4009400057FC76E0BB7B9BB21A46520013447B83FA8B7B8BD31AFB83BB6893F880310133DAB2BB6883F88021BB6893F8803103F01F03DAB2BB6883F880210023FB750120FD
:4009800001F0F4FC0346BB75012001F0EFFC03467B75012001F0EAFC03463B7507F1140107F110030422184602F008FB3B69C3F311033B613A697B7EC3F1040322FA03F3B2
:4009C0003B61BB6893F8803119463A69BB6843F82120BB7B012B2CD90023FB75012001F0C5FC0346BB75012001F0C0FC03467B75012001F0BBFC03463B7507F1140107F147
:400A000010030422184602F0D9FA3B69C3F311033B613A697B7EC3F1040322FA03F33B61BB6893F880311A463969BB68203243F82210FB8B002B85D101F02CFC7B7F184690
:400A40002037BD4680BD00BF80B582B000AF0346FB71FB791A461F21082000F06FF9034618460837BD4680BD80B500AF1022EF21082000F063F90346184680BD80B582B0B6
:400A800000AF0346FB71FB79C3F12003DBB21A46F021082000F052F9034618460837BD4680BD00BF80B500AF00227F21092000F045F90346184680BD80B500AF4022BF213A
:400AC000092000F03BF90346184680BD80B582B000AF0346FB71FB791A46F821092000F02DF9034618460837BD4680BD80B582B000AF0346FB71FB791A469F210A2000F02F
:400B00001DF9034618460837BD4680BD80B582B000AF0346FB71FB791A46E3210A2000F00DF9034618460837BD4680BD80B582B000AF0346FB71FB791A46FC210A2000F0BA
:400B4000FDF8034618460837BD4680BD80B584B000AF03460A46FB711346BB710023FB73FB790C33DBB207F10E0219465720FFF7EDFC0346FB73FB7B002B12D1BA7BBB7986
:400B80001343DBB2BB73FB790C33DBB2BA7B19465720FFF763FD0346002B04D00223FB7301E00123FB73FB7B18461037BD4680BD80B582B000AF0021112000F0A5F803469C
:400BC000FB71FB79002B05D10021122000F09CF80346FB71FB7918460837BD4680BD00BF80B582B000AF78607968FF2000F014F8034618460837BD4680BD00BF80B582B042
:400C000000AF78607968FE2000F006F8034618460837BD4680BD00BF80B584B000AF03463960FB710023FB7307F10E02FB7919465720FFF78BFC0346002B03D1BA7B3B6875
:400C40001A7001E00123FB73FB7B18461037BD4680BD00BFB0B588B000AF7860164B07F108041D4628686968AA68EB680FC428692060AB8AA3800023FB770023BB7711E094
:400C8000BB7F07F12002134413F8183C1946786800F014F80346FB77FB7F002B06D1BB7F0133BB77BB7F152BEAD900E000BFFB7F18462037BD46B0BD7C39000080B588B07B
:400CC00000AF78600B46FB7007F11E02FB7811461846FFF7A1FF0346FB77FB7F002B0BD1FA78BB7F07F10800064902F07BF907F108027B6810469847FB7F18462037BD46F2
:400D000080BD00BF9439000080B584B000AF03460A46FB711346BB710023FB73BA79FB7919465720FFF79AFC0346002B01D00123FB73FB7B18461037BD4680BD80B584B013
:400D400000AF0346FB710B46BB7113467B7107F10E02FB7911461846FFF75EFF0346FB73FB7B002B0FD1BA7BBB791340DBB2BB73BA7B7B791343DAB2FB7911461846FFF7F0
:400D8000C3FF0346FB73FB7B18461037BD4680BDB0B5AEB004AFF860B9607A603B600023C7F884300023C7F880300023C7F8A4300023C7F8A0300FE0D7F8A0309B00FA68E8
:400DC00013441B68D7F8A4201344C7F8A430D7F8A0300133C7F8A030D7F8A020BB689A42EADBBB68D7F8A420B2FBF3F3C7F8A4300023C7F8A03013E0D7F8A0309B00FA68CA
:400E000013441B68D7F8A420D31A1946B74AD7F8A03042F82310D7F8A0300133C7F8A030D7F8A020BB689A42E6DB0023C7F8A03028E0AE4AD7F8A03052F82320D7F8A030BE
:400E40000133AA4951F823301A44D7F8A0300233A64951F823301A44D7F8A0300333A34951F823301344002B00DA03339B1019469E4AD7F8A03042F82310D7F8A0300133D4
:400E8000C7F8A030D7F8A030C42BD2DD0023C7F894300023C7F8A0300EE0944AD7F8A03052F82330D7F894201344C7F89430D7F8A0300133C7F8A030D7F8A030C72BECDDED
:400EC000D7F894308A4A82FB03129211DB17D31AC7F89430D7F894301D2B02DC1E23C7F89430D7F894303C2B02DD3C23C7F894300023C7F8A0300DE0D7F8A0309B0007F1EB
:400F0000A8021344002243F8842CD7F8A0300133C7F8A030D7F8A0300E2BEDDD07F1600107F124000F23029304230193D7F894300093C8236D4A00F09BFA0023C7F89030B9
:400F40003B6E012B3ADD0123C7F8A0301BE0D7F8A0309B0007F1A802134453F8842CD7F8A030013B9B0007F1A8010B4453F8843CD31AD7F890201344C7F89030D7F8A03057
:400F80000133C7F8A0303B6ED7F8A0209A42DEDB3B6E013BD7F8902092FBF3F3C7F8903040F6B832D7F8903092FBF3F2D7F8BC301A60D7F8C03001221A7007E0D7F8BC30E7
:400FC0004C4A1A60D7F8C03000221A700023C7F8A0301CE0D7F8A0309B00FA6813441B681946424AD7F8A03042F82310D7F8A0309B007A6813441B6819463F4AD7F8A030DE
:4010000042F82310D7F8A0300133C7F8A030D7F8A020BB689A42DDDB3B6EBB670023FB670023C7F89C300023C7F8A0300DE0D7F8A0309B0007F1A8021344002243F8982CAA
:40104000D7F8A0300133C7F8A030D7F8A030042BEDDD0023C7F8A03016E0D7F8A0309B0007F1A802134453F8843CC82B07DD3B68204A1A60D7F8B83000221A70DAE1D7F845
:40108000A0300133C7F8A030D7F8A020BB6F9A42E3DB0023C7F8A0303BE14FF07F43C7F88C304FF07F43C7F88830D7F8A03001339B0007F1A802134453F8842CD7F8A03087
:4010C0009B0007F1A8010B4453F8843CD31A032B40F31A81D7F8A0309B0007F1A802134453F8843CC7F8983035E000BF7481FF1F1F85EB5119FCFFFF1886FF1FD84AD7F825
:40110000983052F82320D7F888309A420ADDD44AD7F8983052F82330C7F88830D7F89830C7F88030CF4AD7F8983052F82320D7F88C309A420ADDCB4AD7F8983052F823306D
:40114000C7F88C30D7F89830C7F88430D7F898300133C7F89830D7F8A03001339B0007F1A802134453F8842CD7F898309A42C5DCD7F8A03001339B0007F1A802134453F870
:40118000843CB84A52F82320D7F8A0309B0007F1A8010B4453F8843CB24951F82330D21AD7F8A0309B0007F1A8010B4453F8843CD7F88410CB1A03FB02F37B67D7F8A03037
:4011C0009B0007F1A802134453F8843CA54A52F82320D7F8A03001339B0007F1A8010B4453F8841CD7F8A0309B0007F1A800034453F8843CCB1A796F91FBF3F313447B67E7
:40120000984AD7F8843052F823207B6FD31A7B67D7F8A03001339B0007F1A802134453F8843C8F4A52F82320D7F8A0309B0007F1A8010B4453F8843C894951F82330D21A9C
:40124000D7F8A0309B0007F1A8010B4453F8843CD7F88010CB1A03FB02F33B67D7F8A0309B0007F1A802134453F8843C7C4A52F82320D7F8A03001339B0007F1A8010B4471
:4012800053F8841CD7F8A0309B0007F1A800034453F8843CCB1A396F91FBF3F313443B676F4AD7F8843052F823203B6FD31A3B677B6FD7F8882002FB03F3DB11FB663B6FD2
:4012C000D7F88C2002FB03F3DB11BB66BB6E002B1ADDD7F89C30042B16DCFB6E002B13D0FB6E642202FB03F2BB6E92FBF3F2D7F89C309B0007F1A8010B4443F8982CD7F885
:401300009C300133C7F89C30D7F8A0300133C7F8A030BB6F5A1ED7F8A0309A423FF7BDAE07F11003D7F89C10184600F095F9D7F89C30DA0F13445B107B667B6E012B14DD73
:401340007B6E013B9B0007F1A802134453F8982C7B6E9B0007F1A8010B4453F8983C1344DA0F13445B10FB6707E07B6E9B0007F1A802134453F8983CFB67FB6F022B52DD03
:40138000FB6F642B4FDCF86F01F04CFB2CA3D3E9002301F0ADFB03460C4625461C46F86F01F040FB02460B462046294601F0A0FB03460C461846214623A3D3E9002301F038
:4013C000C1FC03460C4625461C46F86F01F02AFB1FA3D3E9002301F08BFB02460B46104619464FF00002204B01F0ACFC02460B462046294601F0CAF903460C46184621461E
:4014000015A3D3E9002301F0C1F903460C461846214601F07FFD02463B681A60D7F8B83001221A7006E03B68104A1A60D7F8B83000221A70A837BD46B0BD00BFAFF30080E4
:4014400048E17A14AE8746C0000000000088C340B4C876BE9F5A3E40AE47E17A14B657407481FF1F1886FF1F0000594019FCFFFF80B586B002AFF860B9607A603B60BB6976
:4014800000933B687A68B968F86800F013F8FB697A68B968F86800F07FF8BB681A683B6A9A42A8BF1A46BB681A6000BF1037BD4680BD00BF80B487B000AFF860B9607A6076
:4014C0003B6001237B61BB6800221A605AE07B699B007A6813441A683B6A9A424FDD7B699B007A6813441A687B6903F18043013B9B0079680B441B689A4240DD01233B6159
:4015000002E03B6901333B617A693B691A443B689A420DDA7B699B007A6813441A6879693B690B449B0079680B441B689A42E8D07B699B007A6813441A6879693B690B440A
:401540009B0079680B441B689A4213DDBB681B680E2B0FDCBB681B68591CBA6811609B00FA6813447A691A603B6901337A6913447B6103E07A693B6913447B6102E07B69D7
:4015800001337B613B685A1E7B699A429FDC00BF1C37BD4680BC704780B588B000AFF860B9607A603B60BB681B681A46F968786800F094F84FF0FF33FB613EE0BB681B6867
:4015C0007B61FB695A1CBB681A60FB690133BB612CE0BB699B00FA6813441A68FB69B3F1FF3F05D0FB699B00F9680B441B6801E04FF0FF33D31A3B613A693B689A4204DCB4
:401600003B685A423B699A420DDDBB681B68591CBA6811609B00FA681344BA699200F9680A4412681A60BB690133BB61BA697B699A42CEDBFB690133FB61BB681A68FB69AA
:401640009A42BBDCBB681B681946F86800F004F800BF2037BD4680BD80B487B000AF7860396001237B612FE07B699B007A6813441B68FB607B693B610FE03B699B007A6890
:401680001A443B6903F18043013B9B0079680B441B6813603B69013B3B613B69002B0ADD3B6903F18043013B9B007A6813441A68FB689A42E1DC3B699B007A681344FA687F
:4016C0001A607B6901337B617A693B689A42CBDB00BF1C37BD4680BC704700BF80B489B000AFF860B9607A600123FB6137E0FB699B00BA6813441B687B61FB69BB610FE069
:40170000BB699B00BA681A44BB6903F18043013B9B00B9680B441B681360BB69013BBB61BB69002B12DD7B699B00FA6813441A68BB6903F18043013B9B00B9680B441B6839
:401740009B00F9680B441B689A42D9DCBB699B00BA6813447A691A60FB690133FB61FA697B689A42C3DB00BF2437BD4680BC704780B582B000AF786039603A680021786887
:4017800001F027FC00BF0837BD4680BD80B584B000AFF860B9607A607A68B968F86801F00DFC00BF1037BD4680BD00BF80B483B000AF0346FB71FEE780B487B000AF786070
:4017C000396000233B6100237B6127E07B699B007A6813441B68BB60BB68FB73BB6823F0FF03BB6014E03B695B003A6813441B781A46BB68134419463B695B003A681344A1
:401800005B780B703B6901333B61FB7B013BFB73FB7B002BE7D17B6901337B617B69132BD4D900BF1C37BD4680BC704780B582B000AF344B19221A80334B18221A70334B78
:4018400045F6BF521A80324B18221A70314B02221A704FF0402308221A702F4B03221A702E4B2F4A1278D2B21A702E4B08221A802D4B41F251221A800023FB7019237B6074
:4018800014E0FB785B00DAB2284B1B78DBB203F00103DBB21343DBB203F00303FB704FF4F07000F05DFF7B68013B7B607B68002B02D0FB78032BE4D17B68002B02D1032059
:4018C000FFF774FF1A4B4FF480721A80184B07221A70184B00221A70174B48221A70144B00221A70154B02221A70154A144B1B78DBB243F00303DBB2137000BF0837BD468F
:4019000080BD00BF804000408240004084400040864000400043004000420040A1460040080100492242004020420040254200400440004006400040084000400140004021
:40194000A243004080B483B000AF0B4B1B78FB710A4AFB7903F00703DBB21370084AFB791B09DBB21370074B44221A7000BF0C37BD4680BC704700BFCF0100496E580040F0
:401980006F5800407658004080B586B000AF72B64B4A4B4B1B78DBB243F00403DBB213700023FB7513E0FA7D13465B0013445B00444A13443B613B691A683B699B889BB21D
:4019C00019461046FFF7D4FEFB7D0133FB75FB7D0A2BE8D90023FB751CE0FA7D13469B0013445B00384A1344FB60FB681B68BB60FB685B687B60FB681A7A5B7A1B021343BF
:401A00007B807B881A467968B868FFF7BFFEFB7D0133FB75FB7D012BDFD92C494FF09040FFF7CAFE2A4A2A4B1B78DBB243F00203DBB21370274A274B1B78DBB243F002034E
:401A4000DBB21370244A244B1B78DBB243F04003DBB21370214A214B1B78DBB243F01003DBB213700A221E491E48FFF78FFE08221D491E48FFF78AFE08221D491D48FFF7AB
:401A800085FE1D4A1C4B1B78DBB243F00803DBB213701A4B61221A70FFF7C8FE174B81221A70174B01221A70FFF74CFF0E220A491448FFF76BFE00BF1837BD4680BD00BF0F
:401AC000E8460040A8390000EC390000500000480350014013500140A0430040C243004084030048C0510040900300481251004098030048225100402243004000480040D9
:401B000004000840B043004080B500AF01F02AFA03461B680C2B00D1FEE7FEE780B584B000AF78600F4B1A687B6813441A460E4BD31A802B09DC0B4B1B68FB60094B1A6849
:401B40007B681344074A136007E001F00BFA02460C2313604FF0FF33FB60FB6818461037BD4680BDCC80FF1F5089FF1F80B586B000AF224B7B61224B3B61204B7B6135E063
:401B80003B691B68FB603B695B68BB603B699B683B6000237B600CE0FB681A68BB681A60BB680433BB60FB680433FB607B6804337B607A683B689A42EED13B69DB683B6072
:401BC00000237B6008E0BB6800221A60BB680433BB607B6804337B607A683B689A42F2D13B6910333B617B69013B7B617B69002BC6D101F0BDF9FEF745FAFEE701000000CC
:401C00005C3A000080B582B000AF184B184A1A60184A184B1B6843F40073136000237B600FE07B68032B04D8134A7B6852F8233000E0124B12497A6841F822307B68013381
:401C40007B607B682F2BECD90E4B1B78DAB20E4B1A700E4B0A4A1A60FFF796FE0C4B00221A6000BF0837BD4680BD00BF0CED00E00004FA0514ED00E000000000091B0000AA
:401C80000080FF1FBC760040C480FF1F08ED00E0C080FF1F80B500AF144B02221A70144B81221A70134B08221A70134B0F221A70124B00221A70124B4FF400421A6007214A
:401CC0000F2000F029FD0F490F2000F0FDFC0E4B10221A700D4B00221A700D4B00221A700C4B00221A7000BF80BD00BFD6490040C8490040CA490040DB490040DC49004088
:401D000080E100E0911D00003889FF1F4989FF1F3C89FF1F3D89FF1F80B582B000AF00F027FD0346FB710C4A0B4B1B78DBB243F00403DBB21370094A084B1B78DBB243F030
:401D40000403DBB21370FB79184600F015FD00BF0837BD4680BD00BFA5430040B543004080B500AF084B1B78002B04D1FFF792FF054B01221A70FFF7CFFF044B4FF4004235
:401D80001A6000BF80BD00BF6681FF1F00E100E080B582B000AFA74B1B78FB71A64B1B78DBB203F04003DBB2002B00F0A981FB7903F00103002B00F080819F4B1B78DBB277
:401DC000453B052B00F2758101A252F823F000BFE91D00000F1F0000B3200000B3200000E91D0000FB1F0000FB7923F02003FB71FB7903F00A03DBB2082B46D18E4B1B78C5
:401E0000DBB2452B3AD18D4B1B78DBB2002B0FD08B4A8C4B1B681B78DBB21370854B04221A70894B01221A70834B46221A7044E1864B1B78DBB203F00203002B0FD0844B1E
:401E40001B78DBB243F00A03DAB2814B1A707A4B60221A707F4B4FF400421A602DE17E4A7D4B1B78DBB243F01003DBB213707B4B10221A706F4B04221A701EE16D4B0022AD
:401E80001A706D4B4A221A7017E1FB7903F00A03DBB20A2B37D16E4B1B78DBB263F05F03DAB26B4B1A70694B1B78DBB203F00203002B19D0604B1B78DBB203F00803002B86
:401EC00001D0092300E00A23DAB2614B1B78DBB21343DAB25E4B1A70574B60221A705D4B4FF400421A60E8E05B4A5B4B1B78DBB243F01003DBB21370584B10221A704D4B96
:401F000004221A70D9E0002000F0B0FBD5E0FB7903F00203002B42D14B4B1B78DAB2474B1B78DBB29A4214D2454A464B1B6846490978C9B20B441B78DBB213703D4B042227
:401F40001A70414B1B78DBB20133DAB23E4B1A70B3E03E4B1B78DBB203F00203002B0FD03B4B1B78DBB243F00A03DAB2384B1A70314B60221A70374B4FF400421A609CE016
:401F8000354A354B1B78DBB243F01003DBB21370324B10221A70274B04221A708DE02B4B1B78DBB203F00203002B0FD0284B1B78DBB263F06503DAB2254B1A701E4B60228D
:401FC0001A70244B4FF400421A6076E0224A224B1B78DBB243F01003DBB213701F4B10221A70144B04221A70194B1B78DBB263F06F03DAB2164B1A705FE0194B1B68194AC6
:402000001278D2B213440E4A1278D2B21A70154B1B78DBB20133DAB2124B1A70114B1B78DAB2114B1B78DBB29A421FD2014B10221A7042E0D74900403889FF1F3E89FF1F12
:40204000D84900404089FF1F3D89FF1F4889FF1F4989FF1F80E100E0D6490040D94900404489FF1F3C89FF1F4A89FF1F2C4B1B78DBB203F00203002B0FD02A4B1B78DBB266
:4020800043F00903DAB2274B1A70274B60221A70264B4FF400421A600FE0254A244B1B78DBB243F01003DBB21370224B00221A7003E0002000F0DAFA00BFFB7903F02003FF
:4020C000002B28D0184B1B78DBB203F00803002B01D0012300E00223DAB2124B1B78DBB21343DAB20F4B1A70114A114B1B78DBB223F01003DBB213700B4B10221A700AE03F
:40210000094B1B78DBB203F01003DBB2002B02D1054B10221A7000BF0837BD4680BD00BF4889FF1F4989FF1F3889FF1F80E100E0D6490040D749004080B485B000AF034672
:402140000A46FB711346BB710223FB73234B1B78DBB2102B3CD1224B1B78DBB203F00803002B33D11F4B4FF400421A60FB795B00FB71BB79002B07D0FB7943F00103FB710A
:40218000164B49221A7002E0144B45221A70164AFB791370124B01221A7000BF134B1B78DBB203F00103002BF8D0104B1B78DBB203F00A03DBB20A2B05D1084B10221A70ED
:4021C0000323FB7304E00023FB7301E00123FB73FB7B18461437BD4680BC70473889FF1FD949004080E100E0D8490040D749004080B485B000AF03460A46FB711346BB7169
:402200000223FB731F4B1B78DBB203F00403002B31D0FB795B00FB71BB79002B07D0FB7943F00103FB71184B49221A7002E0164B45221A70154AFB791370124B12221A70D6
:40224000134B04221A7000BF114B1B78DBB203F00103002BF8D00E4B1B78DBB203F00A03DBB20A2B05D1084B10221A700323FB7301E00023FB73FB7B18461437BD4680BCA7
:40228000704700BFD94900403889FF1FD8490040D749004080B483B000AF0223FB71104B1B78DBB203F00403002B12D00C4B10221A700C4B04221A700B4B10221A7000BF92
:4022C000084B1B78DBB203F02103002BF8D00023FB71FB7918460C37BD4680BC704700BFD9490040D74900403889FF1F80B485B000AF0346FB710223FB73184B1B78DBB284
:4023000003F00403002B22D0154AFB791370154B04221A70144B46221A7000BF114B1B78DBB203F00103002BF8D00E4B1B78DBB203F00203002B05D10B4B60221A700023B3
:40234000FB7304E0084B60221A700323FB73FB7B18461437BD4680BC704700BFD9490040D8490040D74900403889FF1F80B485B000AF0346FB710023FB73164B1B78DBB263
:4023800003F00403002B1FD0134B1B78DBB2492B05D1124B00221A700F4B4A221A7000BF0E4B1B78DBB203F00103002BF8D00C4B1B78FB73FB79002B03D0084B10221A70ED
:4023C00002E0054B60221A70FB7B18461437BD4680BC7047D94900403889FF1FD7490040D849004080B500AF064B1B78002B04D100F00AF8034B01221A7000F025F800BF07
:4024000080BD00BF6781FF1F80B400AF094B72221A70094B20221A70084B06221A70084B47221A70074B00221A7000BFBD4680BC704700BF88650040896500402A6500403E
:402440003A6500408B65004080B582B000AF00F08FF90346FB71114A104B1B78DBB243F02003DBB213700E4A0D4B1B78DBB243F01003DBB213700B4A0A4B1B78DBB243F0AB
:402480001003DBB2137000F0D7F8FB79184600F073F900BF0837BD4680BD00BF98650040996500409B65004080B483B000AF0346FB7100BF074B1B78DBB203F00403002B33
:4024C000F8D1054AFB79137000BF0C37BD4680BC704700BF6B6500404B65004080B584B000AF78600023FB810C4B1B78002B10D009E0FB897A6813441B781846FFF7D4FF32
:40250000FB890133FB81FB897A6813441B78002BEFD100BF1037BD4680BD00BF6781FF1F80B485B000AF0346FB710B4B1B78DBB223F00203FB730849FB795B00DBB203F0B8
:402540000203DAB2FB7B1343DBB20B7000BF1437BD4680BC704700BF2051004080B400AF054B1B78DBB203F002035B08DBB21846BD4680BC704700BF2151004080B582B01F
:4025800000AF786000F03CF8786800F009F8072000F018F800F028F800BF0837BD4680BD80B485B000AF7860054B1B68FB60FB686C337A681A6000BF1437BD4680BC7047AE
:4025C00008ED00E080B483B000AF0346FB71054AFB795B01DBB2137000BF0C37BD4680BC704700BF0BE400E080B400AF034B4FF400621A6000BFBD4680BC704700E100E0C0
:4026000080B400AF034B4FF400621A6000BFBD4680BC704780E100E080B400AF054B1B78DBB203F010031B09DBB21846BD4680BC704700BF8C45004080B400AF094A094B9C
:402640001B78DBB243F00103DBB21370064A064B1B78DBB243F00103DBB2137000BFBD4680BC7047A2430040B243004080B483B000AF0346FB7101BE00BF0C37BD4680BC11
:40268000704700BF80B582B000AF786008E00C4B1B68184600F064F87B68A3F500437B607B68B3F5004FF2D8064B1B687A6802FB03F3184600F054F800BF0837BD4680BD8C
:4026C000DC80FF1FD480FF1F80B584B000AF03463960FB710F4B1B68FB60FB791F2B02D90020FFF7C3FFFB7903F01F0310339B00FA6813441B68BB60FB7903F01F03103355
:402700009B00FA6813443A681A60BB6818461037BD4680BD08ED00E080B582B000AF03460A46FB711346BB71BB79072B02D90020FFF79CFFFB791F2B02D90020FFF796FF76
:40274000FB7903F01F0303F1604303F56443BA795201D2B21A7000BF0837BD4680BD00BF0230800803D000BF01380046FCD17047EFF3108072B6704780F31088704700BFE8
:4027800081F0004102E000BF83F0004330B54FEA41044FEA430594EA050F08BF90EA020F1FBF54EA000C55EA020C7FEA645C7FEA655C00F0E2804FEA5454D4EB5555B8BF6D
:4027C0006D420CDD2C4480EA020281EA030382EA000083EA010180EA020281EA0303362D88BF30BD11F0004F4FEA01314FF4801C4CEA113102D0404261EB410113F0004F5B
:402800004FEA03334CEA133302D0524263EB430394EA050F00F0A780A4F10104D5F1200E0DDB02FA0EFC22FA05F2801841F1000103FA0EF2801843FA05F359410EE0A5F1C8
:4028400020050EF1200E012A03FA0EFC28BF4CF0020C43FA05F3C01851EBE37101F0004507D54FF0000EDCF1000C7EEB00006EEB0101B1F5801F1BD3B1F5001F0CD34908E2
:402880005FEA30004FEA3C0C04F101044FEA445212F5800F80F09A80BCF1004F08BF5FEA500C50F1000041EB045141EA050130BD5FEA4C0C404141EB010111F4801FA4F164
:4028C0000104E9D191F0000F04BF01460020B1FA81F308BF2033A3F10B03B3F120020CDA0C3208DD02F1140CC2F10C0201FA0CF021FA02F10CE002F11402D8BFC2F1200C71
:4029000001FA02F120FA0CFCDCBF41EA0C019040E41AA2BF01EB0451294330BD6FEA04041F3C1CDA0C340EDC04F11404C4F1200220FA04F001FA02F340EA030021FA04F3EE
:4029400045EA030130BDC4F10C04C4F1200220FA02F001FA04F340EA0300294630BD21FA04F0294630BD94F0000F83F4801306BF81F480110134013D4EE77FEA645C18BF99
:402980007FEA655C29D094EA050F08BF90EA020F05D054EA000C04BF1946104630BD91EA030F1EBF0021002030BD5FEA545C05D14000494128BF41F0004130BD14F5800488
:4029C0003CBF01F5801130BD01F0004545F0FE4141F470014FF0000030BD7FEA645C1ABF194610467FEA655C1CBF0B46024650EA013406BF52EA033591EA030F41F400210C
:402A000030BD00BF90F0000F04BF0021704730B54FF4806404F132044FF000054FF0000150E700BF90F0000F04BF0021704730B54FF4806404F1320410F0004548BF4042E0
:402A40004FF000013EE700BF42004FEAE2014FEA31014FEA02701FBF12F07F4393F07F4F81F06051704792F0000F14BF93F07F4F704730B54FF4607401F0004521F0004102
:402A800020E700BF50EA010208BF704730B54FF000050AE050EA010208BF704730B511F0004502D5404261EB41014FF4806404F132045FEA915C3FF4DCAE4FF003025FEAE3
:402AC000DC0C18BF03325FEADC0C18BF033202EBDC02C2F1200300FA03FC20FA02F001FA03FE40EA0E0021FA02F11444C1E600BF70B54FF0FF0C4CF4E06C1CEA11541DBFBD
:402B00001CEA135594EA0C0F95EA0C0F00F0DEF82C4481EA030621EA4C5123EA4C5350EA013518BF52EA033541F4801143F4801338D0A0FB02CE4FF00005E1FB02E506F03B
:402B40000042E0FB03E54FF00006E1FB03569CF0000F18BF4EF0010EA4F1FF04B6F5007F64F5407404D25FEA4E0E6D4146EB060642EAC62141EA55514FEAC52040EA5E5008
:402B80004FEACE2EB4F1FD0C88BFBCF5E06F1ED8BEF1004F08BF5FEA500E50F1000041EB045170BD06F0004646EA010140EA020081EA0301B4EB5C04C2BFD4EB0C0541EA16
:402BC000045170BD41F480114FF0000E013C00F3AB8014F1360FDEBF002001F0004170BDC4F10004203C35DA0C341BDC04F11404C4F1200500FA05F320FA04F001FA05F24B
:402C000040EA020001F0004221F0004110EBD37021FA04F642EB06015EEA430E08BF20EAD37070BDC4F10C04C4F1200500FA04F320FA05F001FA04F240EA020001F0004194
:402C400010EBD37041F100015EEA430E08BF20EAD37070BDC4F1200500FA05F24EEA020E20FA04F301FA05F243EA020321FA04F001F0004121FA04F220EA020000EBD37035
:402C80005EEA430E08BF20EAD37070BD94F0000F0FD101F00046400041EB010111F4801F08BF013CF7D041EA060195F0000F18BF704703F00046520043EB030313F4801FFA
:402CC00008BF013DF7D043EA0603704794EA0C0F0CEA135518BF95EA0C0F0CD050EA410618BF52EA4306D1D181EA030101F000414FF0000070BD50EA410606BF1046194650
:402D000052EA430619D094EA0C0F02D150EA013613D195EA0C0F05D152EA03361CBF104619460AD181EA030101F0004141F0FE4141F470014FF0000070BD41F0FE4141F44C
:402D4000780170BD70B54FF0FF0C4CF4E06C1CEA11541DBF1CEA135594EA0C0F95EA0C0F00F0A7F8A4EB050481EA030E52EA03354FEA013100F088804FEA03334FF08055CD
:402D800045EA131343EA12634FEA022245EA111545EA10654FEA00260EF000419D4208BF964244F1FD0404F5407402D25B084FEA3202B61A65EB03055B084FEA32024FF4E8
:402DC00080104FF4002CB6EB020E75EB030E22BFB61A754640EA0C005B084FEA3202B6EB020E75EB030E22BFB61A754640EA5C005B084FEA3202B6EB020E75EB030E22BF59
:402E0000B61A754640EA9C005B084FEA3202B6EB020E75EB030E22BFB61A754640EADC0055EA060E18D04FEA051545EA16754FEA06164FEAC30343EA52734FEAC2025FEA09
:402E40001C1CC0D111F4801F0BD141EA00014FF000004FF0004CB6E711F4801F04BF01430020B4F1FD0C88BFBCF5E06F3FF6AFAEB5EB030C04BFB6EB020C5FEA500C50F11D
:402E8000000041EB045170BD0EF0004E4EEA113114EB5C04C2BFD4EB0C0541EA045170BD41F480114FF0000E013C90E645EA060E8DE60CEA135594EA0C0F08BF95EA0C0F6D
:402EC0003FF43BAF94EA0C0F0AD150EA01347FF434AF95EA0C0F7FF425AF104619462CE795EA0C0F06D152EA03353FF4FDAE1046194622E750EA410618BF52EA43067FF402
:402F0000C5AE50EA41047FF40DAF52EA43057FF4EBAE12E74FEA410212F5001215D211D56FF47873B3EB625212D94FEAC12343F0004343EA505311F0004F23FA02F018BF61
:402F4000404270474FF00000704750EA013005D111F0004008BF6FF0004070474FF00000704700BF014B1868704700BF4081FF1F0E4B70B51E460E4C0025E41AA410A542B3
:402F800004D056F8253098470135F8E700F054FD084B094C1E46E41AA4100025A54204D056F8253098470135F8E770BD443A0000443A0000443A00004C3A000010B5431EDD
:402FC0000A44914204D011F8014B03F8014FF8E710BD03460244934202D003F8011BFAE7704700000EB400B54FF402719CB0ADF814106FF00041049107914FF6FF711DAB1F
:4030000002900690084853F8042BADF81610006802A9019300F064F8029B00221A701CB05DF804EB03B070474081FF1F2DE9F0478E6882469E420C46914698463ED88A8923
:4030400012F4906F3AD02568096902236F1A656905EB450595FBF3F57B1C43449D4238BF1D4653050FD5294600F040FB064698B13A462169FFF7A2FFA38923F4906343F048
:403080008003A38113E02A4600F08EFB064670B92169504600F0DEFA0C23CAF80030A3894FF0FF3043F04003A381BDE8F08726613E44266046466561ED1BA560464528BF5F
:4030C000464649463246206800F0A8FAA36800209B1BA36023681E442660BDE8F08700002DE9F04F9DB003938B8980461C060D4616460DD50B695BB9402100F0F7FA286099
:40310000286118B90C23C8F80030CDE040236B610023099320238DF82930DFF89CB130238DF82A3037463C4614F8013B1BB9B7EB060910D003E0252BF9D02746F3E74B4684
:40314000324629464046FFF771FF013000F0A780099B4B4409933B78002B00F0A08000234FF0FF3204930793059206938DF853301A930126052221784E4800F041FA671CA3
:40318000049B38B14B4A3C46801A06FA00F018430490EFE7D90644BF20228DF853201A0744BF2B228DF8532022782A2A03D0079A00210A200BE0039A111D12680391002A01
:4031C00010DA524243F00200079204900BE027463B780134303B092B03D800FB02320121F5E701B107923B782E2B1ED17B782A2B0AD1039B02371A1D1B680392002BB8BFD7
:403200004FF0FF33059310E0002319460593781C0A2407463A780130303A092A03D804FB01210123F5E703B1059103223978224800F0E6F940B14023CBEB000003FA00F0A0
:40324000049B013718430490397806221B487E1C8DF8281000F0D4F988B1194B33B9039B073323F007030833039314E003AB00932A46144B04A94046AFF3008007E003ABFB
:4032800000932A460F4B04A9404600F093F8B0F1FF3F824603D0099B5344099342E7AB895B0601D4099801E04FF0FF301DB0BDE8F08F00BF023A0000083A00000C3A0000BB
:4032C000000000002D3000002DE9F04791461F460A698B6806469342B8BF1346C9F8003091F843200C46DDF8208012B10133C9F800302368990642BFD9F800300233C9F8E3
:403300000030256815F0060510D104F1190A07E00123524639463046C04701301AD00135E368D9F800209B1A9D42F1DB94F843302268003318BF012392060FD5E1183020BF
:4033400081F843005A1C94F845102244023382F8431003E04FF0FF30BDE8F08704F1430239463046C0470130F4D02268D9F80050E36802F00602042A08BF5D1B2269A36847
:403380000CBF25EAE57500259342C4BF9B1AED184FF000091A344D4509D00123224639463046C0470130D5D009F10109F3E70020BDE8F0872DE9F04317460A7E85B06E2A2E
:4033C000984606460C460C9B01F1430E00F0AE8011D8632A22D009D8002A00F0BB80582A40F0CA8081F84520834955E0642A1ED0692A1CD0C0E0732A00F0B08009D86F2AFE
:403400002ED0702A40F0B8800A6842F020020A603EE0752A24D0782A3AD0ADE01A6801F14205111D1960136884F84230A8E021681A6811F0800F02D0111D196008E011F022
:40344000400F02F10401196002D0B2F9003000E01368002B3CDA2D225B4284F8432037E021681A6811F0800F02D0111D196007E011F0400F02F10401196001D0138800E059
:403480001368227E5C496F2A14BF0A2208221BE078225A4984F845202268186812F0800F00F104051D6003D1550601D5038800E00368D00744BF42F0200222601BB9226876
:4034C00022F0200222601022002084F8430001E049490A226568002DA56008DB206820F0040020602BB9002D7DD175460CE0002B79D07546B3FBF2F002FB1033CB5C05F83F
:40350000013D03460028F5D1082A0BD12368DA0708D5236962689A42DEBF302305F8013C05F1FF35C5EB0E0323612EE008681A6810F0800F496903D0101D1860136808E0D8
:4035400010F0400F02F104001860136801D0198000E0196000232361754616E01A68111D1960156800216268284600F049F808B1401B6060636804E004F1420584F842202A
:4035800001232361002384F84330CDF800803B4603AA21463046FFF797FE013002D14FF0FF3026E023692A4639463046C0470130F5D023689B0710D5002504F1190907E0DB
:4035C00001234A4639463046C0470130E7D00135E368039A9B1A9D42F2DBE068039B9842B8BF184605E00B7804F1420584F842308AE705B0BDE8F083133A0000243A0000A4
:4036000010B5C9B202449042034605D01C7801308C42F8D1184610BD002010BD884210B501EB020301D8421E0BE09842FBD28118D21AD34204D013F8014D01F8014DF8E768
:4036400010BD994204D011F8014B02F8014FF8E710BD000038B50546002944D051F8043C0C1F002BB8BFE41800F0D4F81E4A1368114613B96360146030E0A3420DD922685E
:40368000A018834201BF18685B681218226063600C6023E0A24203D813465A68002AF9D118681918A1420BD12168014458188242196013D110685268014419605A600DE078
:4036C00002D90C232B6009E021686018824201BF106852680918216062605C602846BDE8384000F098B838BD7081FF1F70B5CD1C25F0030508350C2D38BF0C25002D064664
:4037000001DBA94202D90C23336046E000F082F8234B1C681A462146A1B10B685B1B0ED40B2B03D90B60CC18CD501EE08C420BBF63684B681360636018BF0C4615E00C4687
:403740004968E9E7174C23681BB9304600F052F820602946304600F04DF8431C18D0C41C24F00304A0420DD12560304600F053F804F10B00231D20F00700C31A0ED05A42D6
:40378000E25070BD211A304600F034F80130EBD10C233360304600F03EF8002070BD00BF7081FF1F6C81FF1FF8B5074615460E4621B91146BDE8F840FFF798BF1AB9FFF79F
:4037C00049FF2846F8BD00F027F885420ED929463846FFF78BFF044650B131462A46FFF7EDFB31463846FFF735FF01E03046F8BD2046F8BD38B5064C002305460846236060
:40380000FEF78CF9431C02D1236803B12B6038BD4C89FF1F7047704751F8040C0028BEBF091851F8043CC01804387047000000002A2A2A2A2A2A2A2A2A2A2A2A2A2A2A2AA9
:403840002A2A2A2A2A2A2A2A2A2A0D0A000000002020202020202020204D415833303130312020202020202020200D0A0000000044657669636520666F756E64206F6E20B2
:40388000493243206275730D0A0000005265766973696F6E2049443A203078253032580D0A000000506172742049443A203078253032580D0A000000526567697374657254
:4038C00073206265666F726520636F6E66696775726174696F6E0D0A0000000052656769737465727320616674657220636F6E66696775726174696F6E0D0A000D0A0D0A4C
:403900000000000025640D0A000000007265643A20256C750D00000069723A20256C750D000000006E756D626572206F662073616D706C65732074616B656E3A2025640D41
:403940000000000073706F323A20256C640D000076616C696473706F323A2025640D000048523A20256C640D0000000076616C696448523A2025640D0A0000000001020343
:403980000405060708090A0C0D0E0F11121F2021FEFF00005B3078253032585D202D203078253032580D0A00C84900401900004F00400C000051004010003051004040002F
:4039C000F0510040100000000140001000140140000480180140800300400140000A004C01400002005001402000000060520040FC020048060000180140040300488000FF
:403A00004300232D302B2000686C4C006566674546470030313233343536373839414243444546003031323334353637383961626364656600000000F8B500BFF8BC08BC6C
:403A40009E4670474D000000051C0000F8B500BFF8BC08BC9E46704729000000703A0000C880FF1F800000000808000000000000000000005089FF1F00366E01C05D00003C
:403A8000180000000000E02E0000000000000000000000000000000000000000000000000000000000000000003A00000000000000000000000000000000000000000000A6
:403AC00000000000000000000000000000000000000000000000000000000000000000000000000000000000E080FF1F000000000000000000000000000000000000000048
:403B00000000000000000000000000000000000000000000000000000000000000000000000000000000000000000000000000000000000000000000000000000000000085
:403B40000000000000000000000000000000000000000000000000000000000000000000000000000000000000000000000000000000000000000000000000000000000045
:403B80000000000000000000000000000000000000000000000000000000000000000000000000000000000000000000000000000000000000000000000000000000000005
:403BC00000000000000000000000000000000000000000000000000000000000000000000000000000000000000000000000000000000000000000000000000000000000C5
:020000040003F7
:0200000480007A
:4000000001450040024F0040036500400107014004080140020901400415014001170140111801403B190140701A0140531B01400242014005430140034801400F490140C0
:40004000084C0140114D01400250014001510140640201100A27887289388B0FE201B908BF04D904DF0121088108E008E401E610EA01E204820295019801A202A801AC0112
:40008000B201B402B701BA02BE10BF40D418D804D904DB04DF0102800450050A06400A040C010D010E210F08108211101726180419061B041C181DA01E401F04200225088D
:4000C00026932A102B042C012D0A2F0432043504361137403E2A3F8045A046504C804E0257405B015E4060056C026D106E04762A77268C018D08C0F8C2F2C47BCAF0CCF287
:40010000CEF0D0F0D210D611D80CE2040410058006AC07130C0C0E710F0C100912D01414152C174319711A031B061F08201021712240230E262028DC2A2230E031C0330FBC
:40014000341F353039223A023B083F104002454049FF4A074BFF4C404D204EF04F055008580459045A045F01604061A86240632080138103820484408518862088138918EC
:400180008A0C8C808D128E208F0891039208940A9614970398E09B039C209D039EC0A120A509A615A714A8E0AB03AC03AE14B010B104B318B40FB520B6E0B703BA20BE018C
:4001C000BF10C026C101C50BC60EC7C0C825C9FFCAFFCBFFCEF0CF44D00CD401D804D904DA04DB04DF01E6C0EA40EB0202010310044005190A280B400D080E050F40108084
:40020000110412081514160219011A081D101E4120042108220823402604274929012A012D092F84308031183310348035063610380839043B403C403D103E0540044601D4
:40024000471048804C044E105004560257805C205D015E405F088040820489088C208E0291109204930894409609988099069D089F41A210B085B101C0F5C2FEC4EECAE150
:40028000CCFECEFAD034D220D6F0E008E401E610EA013E10CE206B8083809610DC20E28082209610E2201220164072207408822086408C089A20AA10C430DC80DE20E01086
:4002C000E480EA801080132017047B107F408080C40EDE03104075028310874088408F04978099029B04A710AB20B102C408DE04E201E608E80110011C0103C082800000F8
:40030000430000003F100000010880001F1820000200808033000C801C002323003C234203004004087F0000040400000C1C00610067001810382C800F1FC04000802820BF
:40034000000041042304050001E00C0006FFFFFF62A0F0410C00000000000210040404040000000100000000000040020010301000101012000000000000000000000000F6
:4003800000000000830050808300830000000000000B0B000000000000020200000000000000000000000000000000000000000000000000000000000000000000000000CA
:4003C00000000000000000000000000000000000000000000000000000000000000000000000000000000000000000000000000000000000000000000000000000000000FD
:4004000000000000000000000000000000000000000000000000000000000000000000000000000000000000000000000000000000000000000000000000000000000000BC
:40044000000000000000000000000000000000000000000000000000000000000000000000000000000000000000000000000000000000000000000000000000000000007C
:40048000000000000000000000000000000000000000000000000000000000000000000000000000000000000000000000000000000000000000000000000000000000003C
:0200000490006A
:0400000000004005B7
:0200000490105A
:04000000BC90ACAF55
:0200000490303A
:020000003BB310
:0200000490402A
:4000000000000000000000000000000000000000000000000000000000000000000000000000000000000000000000000000000000000000000000000000000000000000C0
:400040000000000000000000000000000000000000000000000000000000000000000000000000000000000000000000000000000000000000000000000000000000000080
:400080000000000000000000000000000000000000000000000000000000000000000000000000000000000000000000000000000000000000000000000000000000000040
:4000C0000000000000000000000000000000000000000000000000000000000000000000000000000000000000000000000000000000000000000000000000000000000000
:0200000490501A
:0C00000000012E16106900012E2E4C1C71
:00000001FF